:020000041A00E0
:10000000F02B08103101001A3501001A3701001ACF
:100010003901001A3B01001A3D01001A5A5A5A5A76
:100020000000000000000000000000003F01001A76
:100030004101001A000000004301001A796A001A09
:100040004701001AE135001A9D16001A4701001AEF
:100050004701001A4701001A4701001A4701001A18
:100060002D77001A4701001A4701001A4701001AAC
:100070004701001A4701001A4701001AD96A001AFD
:100080004701001A4701001A4701001A4701001AE8
:100090004701001A4701001A4701001A4701001AD8
:1000A0004701001A4701001A4701001A4701001AC8
:1000B0004701001A4701001A4701001A4701001AB8
:1000C0007529001A4701001A4701001A4701001A52
:1000D0004701001A4701001A4701001A4701001A98
:1000E0004701001A4701001A4701001A4701001A88
:1000F000000000004701001A4701001A4701001ADA
:10010000000000004701001A4701001A4701001AC9
:100110004701001ADFF80CD000F0BCFB0048004794
:100120009395001AF02B08100138FDD1704700009C
:1001300005480047FEE7FEE7FEE7FEE7FEE7FEE7CD
:10014000FEE7FEE7FEE7FEE71501001A704670477E
:100150002DE9F05F0546002092469B4688460646FC
:10016000814640241BE0284641464746224600F08F
:1001700088FA53465A46C01A914110D31146184680
:10018000224600F06FFA2D1A67EB01084F4622460F
:100190000120002100F066FA17EB00094E41201EF5
:1001A000A4F10104DFDC484631462A464346BDE857
:1001B000F09F40EA01039B0703D009E008C9121F22
:1001C00008C0042AFAD203E011F8013B00F8013B11
:1001D000521EF9D27047D2B201E000F8012B491E3D
:1001E000FBD270470022F6E710B513460A460446D4
:1001F0001946FFF7F0FF204610BD2DE9FE4F80465F
:1002000081EA0300C00F0C46009021F0004123F06A
:100210000045B8EB0200A94105D240462146904670
:100220001C460B46024623F00040104304D14046D2
:10023000214603B0BDE8F08F270DC7F30A00C3F3D2
:100240000A510290401A0190402866DAC3F3130065
:1002500040F4801B0098924620B10023D2EB030AA1
:1002600063EB0B0B01985946C0F14002504600F079
:10027000F9F906460D4650465946019A00F011FA22
:1002800010EB08006141002487EA115284EAE77309
:100290001A433BD0009A3AB3019A012A4FEA075217
:1002A00010DC001B61EB02014FF0004202EA075232
:1002B000CDE90042001C41F5801132462B4600F08A
:1002C00045FAB6E7001B61EB0201001C41F5801303
:1002D00000185B412018A2F5001747EB030140EA24
:1002E000D570B6196D4111E06D084FEA360645EA42
:1002F000C0754FEA0752001B61EB0201001C41F57B
:10030000801149084FEA30000019514132462B460E
:1003100003B0BDE8F04F00F00CBA00980122400095
:100320000023D0EB020263EBE073009821464FEA12
:10033000E074B8EB000061EB0401E9E783F00043EF
:100340005BE781F0004158E72DE9FE4F81EA0304A5
:1003500004F0004421F0004100944FF0000B23F022
:10036000004350EA010402D052EA030404D1002001
:10037000014603B0BDE8F08FC3F30A54C1F30A5538
:100380002C44A4F2F3340194A0FB0254C1F31301F2
:1003900041F48011C3F3130343F4801301FB0244BF
:1003A00000FB034E840A970A44EA815447EA8357C4
:1003B000A4FB076802958D0A05FB07854FEA932C7D
:1003C00004FB0C542705029D4FEA065847EA1637EE
:1003D000B5EB08056EEB070C870E920E47EA811706
:1003E00042EA8312A7FB0201B6EB0B0164EB0004A7
:1003F0002B0D43EA0C335E1844EB1C50DA46514691
:10040000E7FB0201C5F313044FEA0B3343EA14532D
:100410004FEA0432019C43EA0603A4F10C0402945F
:10042000009CCDE900B400F091F9A2E72DE9F04D70
:1004300081EA030404F0004B21F0004514464FF01C
:10044000000A23F0004150EA050220D054EA0102DC
:100450001DD0C5F30A570246C5F31303C1F31300B9
:10046000C1F30A5640F4801543F48013A7EB060845
:10047000101BD64608F2FD3873EB050002D308F1D5
:10048000010801E092185B41B8F1000F03DA002087
:100490000146BDE8F08D00204FF4801106468446E9
:1004A0000EE0171B73EB050705D3121B63EB050367
:1004B00006434CEA010C49084FEA300092185B41B0
:1004C00050EA0107EDD152EA030012D082EA04009B
:1004D00083EA0501084303D100224FF0004308E0FE
:1004E000101BAB4102D20122002302E06FF0010297
:1004F00053101AEB06004CEB085110EB0A0041EBCD
:100500000B01BDE8F04D00F014B90EB5C10F80EA43
:10051000E0700844CA07002140F233438DE80E0022
:100520000A460B4600F012F903B000BD0EB540F2CA
:10053000334102910021CDE900110A460B4600F03B
:1005400005F903B000BD70B5C1F30A5201F00045D2
:100550000024C1F3130140F2FF3341F480119A42A9
:1005600001DA002070BD40F233439A42A2F23342D6
:1005700003DC524200F085F800E090402C43F1D0BB
:10058000404270BDC1F30A5210B5C1F3130140F2ED
:10059000FF3341F480119A4201DA002010BD40F28D
:1005A00033439A42A2F2334203DC524200F069F82C
:1005B00010BD904010BD00F0004230F000400AD065
:1005C000C10D01F56071C0F3160042EA0151C20885
:1005D00040071143704700200146704730B500299D
:1005E00004DB4FF00044404264EB0101002B04DBCC
:1005F0004FF00044524264EB03038B4208BF824237
:1006000030BD000030B5002904DB4FF0004440420B
:1006100064EB0101002B04DB4FF00044524264EB19
:100620000303994208BF904230BD000001F000432F
:1006300030B421F0004150EA010206D00A0DA2F5C3
:100640006072C1F31301002A02DC30BC0020704745
:10065000440F44EAC104C100E01830BC00EBC250B2
:1006600000F031B8202A04DB203A00FA02F1002021
:1006700070479140C2F1200320FA03F319439040E0
:100680007047202A04DB203A21FA02F0002170474B
:1006900021FA02F3D040C2F12002914008431946EA
:1006A0007047202A06DBCB17203A41FA02F043EAD2
:1006B000E07306E041FA02F3D040C2F1200291401B
:1006C0000843194670470029A8BF7047401C4900DD
:1006D00008BF20F00100704710B4B0FA80FC00FAA7
:1006E0000CF050EA010404BF10BC704749B1CCF1D2
:1006F000200421FA04F411FA0CF118BF012121435E
:100700000843A3EB0C01CB1D0106000A002BBEBF62
:10071000002010BC704700EBC35010440029A4BF58
:1007200010BC7047401C490008BF20F0010010BCFD
:10073000704710B5002B08DA401C41F100019218F7
:100740005B411A4301D120F0010010BD2DE9F04DAD
:1007500092469B4611B1B1FA81F202E0B0FA80F202
:1007600020329046FFF77EFF04460F4640EA0A001B
:1007700041EA0B0153465A46084303D12046394605
:10078000BDE8F08D114653EA010015D0C8F14002D2
:100790005046FFF776FF05460E46504659464246FC
:1007A000FFF760FF084301D0012000E0002005436F
:1007B00046EAE0762C4337430A984FEA4453A0EBCD
:1007C00008004FEAD4240A304FF0000244EA4754AC
:1007D0004FEAD72502D500200146D1E701051019BF
:1007E0006941DDE9084500196941BDE8F04DA0E720
:1007F0002DE9F04D00231A461B1A8A4103DB002025
:100800000146BDE8F08DC1F30A52C1F3130141F472
:1008100080154FF0000BD10702D100186D41521E18
:100820000027044640F2FF11384601EB620A3E46BB
:100830008046024600204FF48011FFF722FFC219C4
:100840007141BB1846EB0100B4EB030C75EB000CD7
:1008500004D3E41A65EB000517460E46241908F187
:1008600001006D4180463428E3DDF91946EB0600AE
:10087000091BA84103D24FF0FF32134601E00022CA
:1008800013461BEB070046EB0A51BDE8F04DFFF79E
:1008900050BF0000064C074D06E0E06840F0010341
:1008A00094E8070098471034AC42F6D3FFF736FCC3
:1008B000F8BB001A18BC001A70B501EB020410F85E
:1008C000015B15F0070301D110F8013B2A1106D195
:1008D00010F8012B03E010F8016B01F8016B5B1EAF
:1008E000F9D12B0705D40023521E0FD401F8013B88
:1008F000FAE710F8013B02F10202A1EB030303E067
:1009000013F8015B01F8015B521EF9D5A142D6D361
:10091000002070BD70B504460D460A48844202D0DE
:100920000948844200D103E0AB2108A008F092FC02
:10093000206820F4803020601DB1206840F48030B1
:10094000206070BD00300E4000400E404472697659
:100950006572735C736F757263655C6C706334335E
:1009600078785F6164632E630000000070B5044610
:100970000D4616461148844202D01148844200D1E7
:1009800003E0FC210FA008F065FC05B100BF00BF2B
:10099000012E05D120680121A940084320600CE008
:1009A000206810F0E06F03D0206820F0E060206045
:1009B00020680121A9408843206070BD00300E40AE
:1009C00000400E40447269766572735C736F757295
:1009D00063655C6C7063343378785F6164632E6345
:1009E0000000000070B504460D460B48844202D05A
:1009F0000A48844200D104E04FF4897108A008F04D
:100A000029FC05B100BF00BF04F1100050F82560BB
:100A1000C6F3891070BD000000300E4000400E404B
:100A2000447269766572735C736F757263655C6C32
:100A30007063343378785F6164632E630000000074
:100A40002DE9F04704460E4617461E48844202D060
:100A50001D48844200D103E048211CA008F0FAFBA5
:100A60001EB12248864200D803E0492117A008F0B1
:100A7000F1FB002020604FF400181248844204D19A
:100A8000002000F029F9054606E00F48844203D112
:100A9000012000F021F90546781C06FB00F909EB5E
:100AA00045004FEA4901B0FBF1F0451E2802C7F1AD
:100AB0000A0140EA414040EA0808C4F80080BDE865
:100AC000F087000000300E4000400E40447269760E
:100AD0006572735C736F757263655C6C70633433DD
:100AE00078785F6164632E6300000000400D0300AE
:100AF00010B50A220D490E48FFF7A2FF0122114648
:100B00000B48FFF733FF012202210948FFF72EFFB0
:100B1000012203210648FFF729FF01210448FFF7BE
:100B2000F9FE00200349086010BD0000400D0300DD
:100B300000300E40886C08402DE9F04104460F4615
:100B4000F4B95FB14048406820F00C003E4948606D
:100B50000846406840F0030048600AE03A484068B0
:100B600020F00300384948600846406840F008001B
:100B70004860002600E0761C34488642FBDB61E0DA
:100B8000022C06D10323102200210C2008F01CFDAA
:100B900058E0032C06D1002310221321012008F075
:100BA00013FD4FE0042C4DD0052C4BD0062C14D156
:100BB00037B92748806940F001002549886105E080
:100BC0002348806920F0010021498861002600E067
:100BD000761C1E488642FBDB34E01E4830F9145078
:100BE000681C02D10220BDE8F08137B918482858A6
:100BF00040F001001649685024E01548285820F0BC
:100C0000010013496850072C05D100BF1048C06986
:100C100010F0010FFAD0082C05D100BF0C48C06AB3
:100C200010F0010FFAD0092C0CD100BF0848006C5D
:100C300010F0010FFAD00648006C10F0010F01D13E
:100C400000BFFEE70020CEE70030044040420F0026
:100C500000000540689A001A30B50346102B01DDEC
:100C6000032030BD07292FDB25292DDCC3EB031022
:100C700000EB4000154D2844405C18B3144830F98F
:100C80001320501C0BD0102909DC072907DB114861
:100C90001058C0F30360884201D10120E1E70C48FD
:100CA00030F91120501C01D10220DAE7094814580C
:100CB00024F07064C01440EA0360044305481450F3
:100CC0000020CEE70320CCE70220CAE7C29A001A30
:100CD000689A001A0000054010B50146262903DB7A
:100CE000002901DC042010BD01EB8100354C04EB30
:100CF000400000792D2830D001EB810004EB40004A
:100D00000079314C34F91000304C0059C0F30363C2
:100D100001EB81002B4C04EB400000792A4C34F9A4
:100D200010002A4C005D10F0010F01D00020DAE71E
:100D300001EB8100234C04EB40004088234C20440D
:100D4000426801EB81001F4C04EB40004088A0B3D7
:100D500012F0010F32D10020C5E701EB8100194CE0
:100D600014F81000184C34F91000184C005D10F005
:100D7000010F01D00020B6E701EB8100114C14F8FF
:100D80001000114C34F91000104C0059C0F30363EB
:100D900001EB81000B4C04EB400040880B4C2044DD
:100DA000426801EB8100074C04EB4000408820B111
:100DB00012F0010F02D1002095E7FFE7044850F838
:100DC000230090E7C09D001A689A001A00000540B1
:100DD0001800081010B504460C4800F089F80121ED
:100DE0000620FFF7A9FE09210620FFF735FF204660
:100DF00000F024F801210920FFF79EFE15210920AB
:100E0000FFF72AFF00F098F8002010BD001BB70084
:100E10000648006A40F001000449086204488862FC
:100E200004484862044808620020704700000540FA
:100E300062202000FA7F16041C000006F0B502466E
:100E400000240025002301262448406CC0F30367DA
:100E5000234850F827105143541E2048406CDFF8B7
:100E600084C000EA0C00DFF874C0CCF844001E48CF
:100E700081421AD201E05B1C760070004843DFF823
:100E800068C06045F7D3200440EA053040EA0320FB
:100E900040F04000DFF844C0DCF844C040EA0C00F9
:100EA000DFF838C0CCF8440016E01048814211D277
:100EB000200440EA053040EA032040F0C000DFF89B
:100EC0001CC0DCF844C040EA0C00DFF810C0CCF8CD
:100ED000440001E00420F0BD0020FCE700000540D4
:100EE000180008103DCC00FF005F4C0900D0121321
:100EF00001460D48814206D20C48806920F004006A
:100F00000A4A90610BE00A48814206D2074880698C
:100F100040F00400054A906101E005207047054853
:100F200081610020FAE70000C0E1E4000000054014
:100F300040787D0118000810F0B52F48406810F087
:100F4000020F0BD02C48406800F0080090F0080019
:100F500004D04FF400402949086002E000202749EE
:100F600008602748406C00F0020090F0020014D0A6
:100F70002348006C10F0010F0FD02148406CC0F3E3
:100F800003661E4850F826001D49496CC1F307410D
:100F9000491C48431949486202E000201749486249
:100FA0000C2420E0174830F914501548285C00F054
:100FB000020090F0020011D011482858C0F30366D7
:100FC0000F48285AC0F387077F1C0C4850F82600AA
:100FD000B0FBF7F0094941F8240003E0002007497D
:100FE00041F82400641C102CDCD91120FFF774FE9A
:100FF00005490860F0BD00000030044018000810EA
:1010000000000540689A001A0000081070B50246FA
:101010000C46FF25FF2309E012F8010B80EA0501C9
:101020000648405C80EA03050548435C2000A4F1C3
:101030000104F1D143EA052070BD0000F09F001AC1
:10104000F0A0001A1CB5044690480078002874D11E
:101050008F48808C20F400508D49888404234FF4FD
:1010600010720721062008F0AFFA00224FF4004169
:10107000052002F0EBF94FF40041052001F006FED7
:1010800000234FF450720B21022008F09DFA012238
:10109000D102104602F0DAF900234FF45072092110
:1010A000022008F091FA01229102104602F0CEF9D6
:1010B00000234FF410720621084608F085FA00223A
:1010C0002021104602F0C2F9EA2C23D101208DF82C
:1010D000000001906F490870002048700120C8701E
:1010E0000020887003200871001F88606A46002174
:1010F000694805F045FF6749674805F015FE01217D
:10110000654805F07FFD052310220821062008F020
:101110005BFAB9E004234FF410720821062008F0AE
:1011200053FA01221104052002F090F94FF48031A6
:10113000052001F0ABFDA7E0FFE7EA2C53D1012029
:101140008DF800000190002052490870487001207D
:10115000C8700020887003200871001F88606A46EC
:1011600000214D4805F00CFF4A494B4805F0DCFDD5
:101170000121494805F046FD00234FF45072092132
:10118000022008F021FA00224FF48061012002F0D1
:101190005DF900234FF450720B21022008F014FA7D
:1011A00000224FF40061012002F050F900234FF4B7
:1011B00010720621084608F007FA012220210020BB
:1011C00002F044F92021002001F060FD05231022E7
:1011D0000721062008F0F8F92D48808C40F40050D3
:1011E0002B4988843FE02A48808C20F4005028490D
:1011F000888404234FF410720721062008F0E4F9D4
:1012000000224FF40041052002F020F94FF4004184
:10121000052001F03BFD00234FF450720B2102200A
:1012200008F0D2F90122D102104602F00FF9002392
:101230004FF450720921022008F0C6F901229102F0
:10124000104602F003F900234FF4107206210846FD
:1012500008F0BAF900222021104602F0F7F8202108
:10126000002001F013FD04234FF410720821062022
:1012700008F0AAF901221104052002F0E7F84FF462
:101280008031052001F002FD1CBD0000DA000810CD
:10129000402108106423081000300C401C480068EE
:1012A000A0BB1C4800881C490988B0EB510F12DA1A
:1012B0001848008818490988C0EB510047F231519D
:1012C000884223DD14480088400812490880012024
:1012D0000F4908601AE0104800880E4909888842C2
:1012E00014DA0C4800884FF6FF71081A0A49098879
:1012F00000EB510047F23151884207DD0648008873
:101300004008044908800120014908607047000036
:1013100020710020D6000810D000081010B51B481E
:1013200000681B49086008460068046808460068B1
:1013300040681849086016480068806816490860C7
:1013400013480068C0681549086011480068006AC1
:10135000134908600E480068406A124908600C484A
:101360000068806A1049086009480068C06A0F492F
:10137000086007480068006B0D4908600448006871
:10138000406B0C490860A04710BD000004014010EC
:1013900074010810780108107C0108108001081001
:1013A00084010810880108108C01081090010810B1
:1013B000940108109801081010B50446204602490F
:1013C0000968884710BD00007801081010B5044670
:1013D00014F0010F05D04FF48051032001F056FCAA
:1013E00004E04FF48051032002F044F814F0020F9F
:1013F00004D00121032001F049FC03E00121032076
:1014000002F038F814F0040F04D00221032001F098
:101410003DFC03E00221032002F02CF814F0080F39
:1014200004D00421032001F031FC03E00421032057
:1014300002F020F814F0100F04D00821032001F06E
:1014400025FC03E00821032002F014F814F0200F1B
:1014500004D01021032001F019FC03E01021032027
:1014600002F008F814F0800F05D04FF40041052079
:1014700001F00CFC04E04FF40041052001F0FAFFFC
:1014800014F4807F05D04FF48031052001F0FEFB7D
:1014900004E04FF48031052001F0ECFF3F48007874
:1014A000EA280FD13E480078F8B114F4007F04D048
:1014B0002021032001F0EAFB1CE02021032001F0A1
:1014C000D9FF17E014F0400F04D02021002001F0D4
:1014D000DDFB03E02021002001F0CCFF14F4007FAD
:1014E00004D02021032001F0D1FB03E020210320C0
:1014F00001F0C0FF14F4806F04D04021032001F0FC
:10150000C5FB03E04021032001F0B4FF14F4006F99
:1015100005D04FF40051032001F0B8FB04E04FF474
:101520000051032001F0A6FF14F4805F05D04FF4B2
:101530008051052001F09EFF04E04FF4805105200A
:1015400001F0A4FB14F4005F05D04FF40051052016
:1015500001F090FF04E04FF40051052001F096FBEC
:1015600014F4804F05D04FF48041052001F082FF34
:1015700004E04FF48041052001F088FB14F4004F93
:1015800005D04FF48071032001F074FF04E04FF4A4
:101590008071032001F07AFB10BD0000EC00081000
:1015A000DA00081070B504463B4A1C2C63D2DFE811
:1015B00004F00E1114171A1D202326292C2F323562
:1015C000383B3E4144474A4D505356595C5F0021D9
:1015D000002053E00021012050E0012101204DE0D6
:1015E000002102204AE00121022047E000210320DF
:1015F00044E00121032041E0002104203EE00121DC
:1016000004203BE00021052038E00121052035E0E1
:101610000021062032E0012106202FE000210720D2
:101620002CE00121072029E00221072026E00021EB
:10163000082023E00121082020E0022108201DE0ED
:10164000002109201AE00121092017E000210A20C9
:1016500014E001210A2011E000210B200EE00021FE
:101660000C200BE000210D2008E000210E2005E0F9
:1016700000210F2002E003210F2000BF00BF460021
:101680000325B5401368AB431360450001FA05F527
:1016900013682B43136070BD1C31044010B500214A
:1016A000084600F099FFB0B10021012000F094FF3E
:1016B00018B10021084600F031FF0021022000F09F
:1016C0008BFF40B10021012000F028FF4548006851
:1016D000401C4449086044480068D0B3434800684F
:1016E00041490968B1F904100844404908600846B6
:1016F00041683D480068B0F9060008443B4948602D
:101700000846816838480068B0F90800084437493D
:1017100088600846C16834480068B0F90A00084487
:101720003249C860084601692F480068B0F90C00CA
:1017300008442E490861084641692B480068B0F901
:101740000E00084429494861274800680068000ADB
:101750008861274800680005000D42D122480068D2
:1017600020B100F053F800201F49086000F074F821
:10177000204908600846006878B30021084600F058
:10178000BBFE00201C49087000211C4805F03AFAF5
:1017900018480068C0881A4A02EB0011082219484C
:1017A00007F004FF13480068808817494860114813
:1017B00000680068C860084601F090F801210F48F1
:1017C00005F020FA0121002000F096FE01200A49D0
:1017D00008700C480449086003E0FFE70020024954
:1017E000086010BD580108104C0108104021081075
:1017F0000C2100405001081045010810004008402D
:101800000050002070230810802308100E48008824
:10181000002816DD0D480E4A126800EBC2010C4884
:101820000068401C0B4A128890FBF2F302FB130085
:10183000074A106004480088401E034A108008468A
:1018400070470020FCE70000107300203072002079
:101850001C7300201473002006480088002806DD51
:101860000548064A126800EBC2010846704700208E
:10187000FCE7000010730020307200201C73002071
:101880007A4800687A4908600846006809287CD9C7
:1018900008460068B0F57A7F77D8764800687649C0
:1018A00088617648006808607548D0F80C12724864
:1018B000C16174480068704948607148D0F81412DA
:1018C0006D480162704800686B4988606C48D0F8C8
:1018D0001C12694841626D4800686749C8606848E1
:1018E000D0F824126448816269480068624908613E
:1018F0006348D0F82C126048C162664800685E49AF
:101900004861654800686549086065480068486046
:1019100064480068886064480068C860634800687C
:10192000086163480068486162480068624908606D
:10193000534890F85002614908705148B0F850027D
:101940004FEA10205E4908704D4890F854025B49F8
:1019500048704B48B0F854024FEA1020584948707C
:10196000474890F85802554988704548B0F85802E1
:101970004FEA102052498870414890F85C024F4964
:10198000C8703F48B0F85C0200E06CE04FEA1020FD
:101990004B49C8703A4890F8600248490871384885
:1019A000B0F860024FEA102045490871344890F8B9
:1019B0006402424948713248B0F864024FEA10208C
:1019C0003F4948713F4800683F4908603F48006808
:1019D0003F4908603948407839494978884223D1DD
:1019E000002036490870012035490870022033492B
:1019F000487003203249487004203049887005201F
:101A00002F49887006202D49C87007202C49C870BE
:101A100008202A4908710920294908710A20274904
:101A200048710B20264948711C4800684EF6602119
:101A3000884204DC194800684942884207DA0A20D3
:101A40001649086048608860C860086148610020E5
:101A5000094908630021084841638163C163016447
:101A60004164012070470020FCE7000000020420D0
:101A70003073002004020420D02108100802042042
:101A80000000042010020420180204202002042078
:101A90002802042030020420340204207822081096
:101AA000380204203C0204204002042044020420A6
:101AB000480204204C02042004710020107200200F
:101AC0002072002068020420407300206C02042071
:101AD0004873002010B555480068554908605548BE
:101AE00080695549C1F804025248006853490860AA
:101AF0005048C0695049C1F80C024E4840685049EE
:101B000008604C48006A4C49C1F814024948806892
:101B10004C4908604748406A4749C1F81C0245489B
:101B2000C068494908604348806A4349C1F82402B3
:101B300040480069454908603E48C06A3E49C1F8CE
:101B40002C023C484069C1F8300241480068C1F8A5
:101B500034023F484068C1F838023D488068C1F807
:101B60003C023B48C068C1F8400239480069C1F8EE
:101B7000440237484069C1F8480236480068C1F855
:101B80004C02354800783549097840EA01202A4955
:101B9000C1F85002304840783049497840EA012085
:101BA0002549C1F854022C4880782C49897840EAAC
:101BB00001202149C1F858022748C0782749C9782F
:101BC00040EA01201C49C1F85C02234800792349FE
:101BD000097940EA01201849C1F860021E4840799D
:101BE0001E49497940EA01201349C1F864021C48A2
:101BF0000068C1F868021B480068C1F86C021A4806
:101C000000684FF41671B0FBF1F42046FEF78CFA31
:101C1000062016490860144800684FF41671B0FB9E
:101C2000F1F42046FEF780FA012010BD3073002049
:101C300000020420D0210810000004200802042023
:101C4000100204201802042020020420280204208C
:101C500078220810047100201072002020720020E9
:101C60004073002048730020C400081000E00040CA
:101C70000848006808490860084800684860084843
:101C80000068886007480068C86006200649086048
:101C90007047000010710020000004201471002023
:101CA000187100201C71002000E000402DED048B15
:101CB0008CB000F0F1FF0120FE4908600320FE49CE
:101CC0000870062008700021FC4804F09BFF0020EB
:101CD000FB490860FB4908600AA8FB490860FB480B
:101CE0000968086000208DF820000220099000207B
:101CF000F749087001204870C8700020887008718A
:101D000008AA0021ED4805F03BF901208DF81000EC
:101D10000590F0490870002048700120C87000202C
:101D2000887003200871001F886004AA0021EA4817
:101D300005F026F9E749E84804F0F6FF0121E648F6
:101D400004F060FF01208DF8180064200790202027
:101D5000E249C8630320E24908700020487001206E
:101D60008870C87006AA0021DE4805F009F9DC4930
:101D7000DC4804F083FFDB4805F07EF904210F20E6
:101D800003F088FA0F2003F06DFA0121D54804F022
:101D900039FF00F0F7FB0020D3490860CB48C8604A
:101DA000D24808610020486001208860486188614D
:101DB000C86100200862084600F086FC012100206E
:101DC00000F09AFB0121BD4804F01CFF1120FEF732
:101DD00083FFC749086008460068C6490860C448D0
:101DE0000068C549B0FBF1F0401EC4494861C048D5
:101DF00000684FF4FA61B0FBF1F5681EB0F1807F26
:101E000000D30FE0681E4FF0E021486107214FF03A
:101E1000FF3003F03FFA00204FF0E02188610720F7
:101E2000086100BF4FF4FA7007F04AFBFEF760FE4E
:101E3000012318220021022007F0C6FB0123D02233
:101E40001946022007F0C0FB4FF416500190032002
:101E50008DF8090000208DF808008DF80A00039025
:101E600001A9A74805F012FA0121A54805F00EFCCA
:101E700000208DF802008DF8030001208DF800008D
:101E80008DF8010069469E4805F06EF907F01CFDCB
:101E90001621082003F0FEF99A48002101604160F4
:101EA0008160C1609848016041608160C16001202B
:101EB000964908709649888496480068AC282AD1CB
:101EC00094488068944908609248C06893490860C3
:101ED00090480069924908608E48406991490860BD
:101EE0008C488069904908608A48006A884908607F
:101EF0008848406A48608748806A88608548C06A28
:101F0000C8608448006B08618248406B4861814822
:101F1000806B886134E068480078052804DB40F273
:101F200056607D49086003E04FF4FF607A4908601D
:101F30000A207A49086041F28830794908604FF4F4
:101F40007A707849086015207749086072480068FF
:101F50007049886071480068C8607148006808610D
:101F6000704800684861704800688861AC2008606B
:101F700000206749086048608860C860086148615F
:101F800000206A49087001206949087002206749E9
:101F90004870032066494870042064498870052011
:101FA0006349887006206149C87007206049C8707D
:101FB00008205E49087109205D4908710A205B49C3
:101FC00048710B205A4948715A4800685A490860BC
:101FD0005848406859490860564880685849086020
:101FE0005448C0685749086001205749087057494C
:101FF00008700020564908805649087056490870F4
:102000005649086056490880564908705649086084
:1020100056490880564908605649086028490860B2
:102020004FF6F07054490880002054490880544904
:102030000860FFF773F90620FFF7BEF9374890ED07
:10204000000AB8EE400A10EE100AFEF7B4FA41ECAE
:10205000100BB0EE409AF0EE609A9FED4A0B53ECF5
:10206000102B51EC190BFEF7E1F941EC100BB0EE1F
:10207000408AF0EE608A51EC180BFEF7D7FA00EEBA
:10208000100ADFED420A80EE201A414880ED001A66
:10209000002404E004203F4941F82400641C062C7D
:1020A000F8DB4FF6FF701A49888600203A4908701D
:1020B00074E000006814054030010810004008403A
:1020C0004C01081048010810500108100080002041
:1020D000582308106423081000300C4000700C4096
:1020E0003F01081000400C408023081004610F409D
:1020F000C4000810CC00081060E3160000E00040A7
:102100000010084048230810D82208104501081084
:102110004021081000100440347300203073002068
:1021200024010810280108100471002010720020FA
:102130002072002000000420107100201471002083
:10214000187100201C7100203E0108104301081086
:1021500000010810040108103201081008010810DD
:10216000F6000810FA000810FC00081004700020A7
:102170004873002040730020D60008101801081092
:102180005073002000000000000059400000C842C9
:10219000C800081078220810E20008104FF47A7086
:1021A000934908609349098888B203F087FA9049F7
:1021B000098888B203F054FA00218F4804F022FD08
:1021C0008E48007805280EDB8D4800688D4948430D
:1021D0008D490968B0FBF1F06421B0FBF1F0401EBD
:1021E0008A4988600DE086480068864948438649E8
:1021F0000968B0FBF1F06421B0FBF1F0401E8349A7
:10220000886082497C4804F08FFD01217A4804F0FF
:10221000F9FC41F608227E49500601F0D1F9002070
:102220007C49086004F03CFA00BF7B480088022823
:10223000FBDB00BF79480088B0F57A7FFADB0A2023
:102240007749086048608860C8600861486100F0AC
:1022500023FD0821052001F00DF900BF6F4800881B
:10226000B0F5FA6FFADB01206E49087000210220F8
:1022700003F010F86C484068000E6C49087008467E
:1022800000786B49087068484068000C67494870DE
:10229000084640786649487063484068000A6349C8
:1022A000887008468078624988705F4840685F4956
:1022B000C8700846C0785E49C870504800785B49CD
:1022C00008714E4800785A490871042057494871EE
:1022D000282088717320C8710020564988835323B1
:1022E00073220721514803F083FA00205249086005
:1022F00048608860012007F07BFA01204F490860A0
:1023000000204F49086001F057FA002004F0C8F996
:10231000FFF7B6FAF8B14B480068C0F300104A491D
:10232000098840EA01004949D1F8001101F48041CF
:1023300040EA51303F49C8830846C08B10F0010F76
:1023400009D1084690F8360040F0010081F83600C7
:102350003F203449087049E0FEF7A0FF03F00EFA71
:1023600001F090FA02F0AAFF01F08AF801F02AFCCD
:1023700002F0C2FF04F0CAF901F04AFB01F03CF997
:10238000264800884008324908603248007840B347
:1023900001F09AF840223049002007F02FFA00207F
:1023A0002C4908702348808C10F0800F05D02B48F2
:1023B0000088C01C2949088004E028480088401C87
:1023C000264908802548008824280BDD2021052087
:1023D00000F05CFC21480088482807DD00201F49E8
:1023E000088003E02021052001F044F8B4E7000054
:1023F000280108102401081000400840300108108E
:102400003073002000A60E003473002058230810FB
:10241000F0A1001A0431054000700020D00008101F
:1024200078220810E3000810005004401A01081038
:1024300030710020402108108021081020710020F8
:102440004473002000610F40DC00081000600F4062
:10245000287100200C0108108C2108108000081041
:1024600070B50246022A1DD1002016E001EB60047F
:10247000A3B213B1012B0DD10BE0C41C1B4D2E5D7B
:10248000041D2C5D06EB0424A40024B2184D2C80FE
:1024900000E000BF00BF841CE0B2144C143CA47DDB
:1024A0008442E3DC012A1BD1002014E001EB60042C
:1024B000A3B213B1012B0BD109E0041D0B4D2E5D0E
:1024C000C41C2C5D06EB04240A4D2C8000E000BFE8
:1024D00000BF841CE0B2054C143CA47D8442E5DCC2
:1024E0000024024D143D2C7470BD0000CC23081054
:1024F000DC0008106C0108100246074B53F822005C
:10250000012904D1036943F00103036103E0036976
:1025100023F00103036170475C00081070B50446A6
:102520000D460CB1012C00D104E040F26F210CA04B
:1025300006F090FE072D00DC04E04FF41C7108A0AB
:1025400006F088FE2CB90120A840C0B20C49886072
:1025500004E00120A840C0B20949086170BD000034
:10256000447269766572735C736F757263655C6CD7
:102570007063343378785F6770646D612E63000038
:102580000020004000200C4908600C49C1F83001CF
:102590000B4908600B4908600B4908600B4908604B
:1025A0000B4908600B4908604FF0FF000349886041
:1025B00008618860086170471021004000200040D9
:1025C000502100407021004090210040B021004087
:1025D000D0210040F021004070B504460D464CB1BA
:1025E000012C07D0022C05D0032C03D0042C01D0E1
:1025F000052C00D104E040F245212AA006F02AFE75
:10260000072D00DC04E040F2462126A006F022FE61
:10261000052C3BD2DFE804F0030E19242F002948D3
:1026200000680121A940C9B2084201D0012070BD53
:102630000020FCE7234840680121A940C9B20842B4
:1026400001D00120F3E70020F1E71E48C068012116
:10265000A940C9B2084201D00120E8E70020E6E71E
:10266000184881690120A840C0B2014201D0012070
:10267000DDE70020DBE7134841690120A840C0B234
:10268000014201D00120D2E70020D0E70D48C16906
:102690000120A840C0B2014201D00120C7E70020BC
:1026A000C5E70000447269766572735C736F75727A
:1026B00063655C6C7063343378785F6770646D61F8
:1026C0002E63000000200040F0B5044600260027DD
:1026D0007D48C069227801219140C9B2084201D0E9
:1026E0000020F0BD7949206851F820502178012060
:1026F0008840C0B274498860217801208840C0B207
:10270000714908610020E8602861206AA86060695A
:1027100008287DD2DFE800F00419365E8E8FB9BA42
:10272000E068286020696860606840F41030217AB1
:1027300001F0070140EA8140217A01F0070140EAF7
:10274000415040F00C40E860A2E0E0682860206959
:102750006860A088C0F30B00217A01F0070140EA0D
:102760008140217A01F0070140EA415040F00640E3
:10277000E860A069FEF716FF0646E069FEF712FF63
:10278000074685E0E0682860206968605049A069D4
:10279000085C00F00701606861F31F304C4AA169D2
:1027A000515C01F0070140EAC1304A4AA169515C1D
:1027B00001F0070140EA8140A169515C01F0070185
:1027C00040EA415040F00940E860A069FEF7EAFEA7
:1027D00006465DE04049A06951F820002860E069A4
:1027E00051F8200068603A49A069085C00F00701D0
:1027F000606861F31F30364AE169515C01F00701FE
:1028000040EAC130334AA169515C01F0070100E0A0
:102810003AE040EA8140E169515C01F0070140EA99
:10282000415040F00340E860A069FEF7BBFE064659
:1028300000272DE02CE0E0682860206968602449CA
:10284000E069085C00F00701606861F31F30204A0E
:10285000E169515C01F0070140EAC1301D4AE169BC
:10286000515C01F0070140EA8140E169515C01F0EF
:10287000070140EA415040F00640E860A069FEF7D9
:1028800091FE0646002703E000BF00BF002028E7B6
:1028900000BF01200C49086300BF0B48006B10F01B
:1028A000010FFAD0207D00F007004FF4404141EACB
:1028B000C02006F01F0140EA410007F01F0140EA76
:1028C0008110286101200CE7002000405C00081006
:1028D000B89F001AD49F001A489F001AF0B504460A
:1028E000002600272149206851F820502178012036
:1028F0008840C0B21E498860217801208840C0B25B
:102900001B490861206AA860E06828602069686047
:10291000A088C0F30B00217A01F0070140EA814052
:10292000217A01F0070140EA415040F00640E8609A
:10293000A069FEF737FE0646E069FEF733FE07465C
:1029400001200B490863207D00F007004FF440414F
:1029500041EAC02006F01F0140EA410007F01F01D4
:1029600040EA811028610120F0BD00005C000810E1
:102970000020004010B52DED048B202000F01F0238
:1029800001219140B14A430942F8231000BF0020C1
:1029900000F046FD00287DD0AD480068AD490988AB
:1029A000884278D0AB480088A9490860002000F030
:1029B00045FD044614F4007F02D114F4807F05D154
:1029C00014F4007F68D014F4807F65D1A2480068B9
:1029D000401EA1490860A148408E0968C1F34F011B
:1029E0008842DED09C480068C0F34F009B4948866F
:1029F000084690F8360010F0010FD2D098480078C1
:102A000000286ED09748007800286ADB9548007847
:102A1000062866DA9449934A127851F822009349BD
:102A2000904A127851F82220002801DB014600E08C
:102A300041428A4255DD8E488A4A127850F8220077
:102A400000EE100AF8EEC00A8A48008800EE100A6C
:102A5000B8EE400A20EE800A10EE101A0846FDF784
:102A6000AAFD41EC100BB0EE409AF0EE609A9FED9B
:102A7000820B53EC102B51EC190BFDF7D7FC41ECFA
:102A8000100BB0EE408AF0EE608A51EC180BFDF7A7
:102A9000CDFD02E0D4E0B7E02FE000EE100A784868
:102AA0007049097800EB8100D0ED000A30EEC00AD1
:102AB00073486C49097800EB810080ED000A694891
:102AC0000178012088406F49097808436D490870F2
:102AD00064480178012088406B49097808436A49B5
:102AE00008705E48808C40F080005C49888408460D
:102AF000808C20F0400088849FE014F4007F02D096
:102B000014F4807F05D114F4007F7DD114F4807F0C
:102B10007AD151480068401C4F4908604F48408EA8
:102B20000968C1F34F0188426ED04B480068C0F37A
:102B30004F004A494886084690F8360010F0010FC9
:102B40007BD047480078002877D046480078002896
:102B500068DB44480078062864DA4349414A127821
:102B600051F8220041493F4A127851F822200028AA
:102B700001DB014600E041428A4253DD3C48394ACC
:102B8000127850F8220000EE100AF8EEC00A394818
:102B9000008800EE100AB8EE400A20EE800A10EE1F
:102BA000101A0846FDF707FD41EC100BB0EE409AF5
:102BB000F0EE609A9FED300B53EC102B51EC190B9B
:102BC000FDF734FC41EC100BB0EE408AF0EE608A69
:102BD00051EC180BFDF72AFD00EE100A2848214998
:102BE000097800EB8100D0ED000A30EE200A24487D
:102BF0001C49097800EB810080ED000A1948017832
:102C0000012088401F4900E017E0097808431D496A
:102C1000087014480178012088401B49097808434E
:102C2000194908700D48808C40F080000B49888459
:102C30000846808C20F040008884002000F0E6FBED
:102C4000202002F01BFBBDEC048B10BD80E100E0F6
:102C50005C010810D000081068010810402108101D
:102C60008500081084000810E8220810A822081027
:102C7000782208108200081000000000000059406F
:102C80000023081033010810E3000810014A42F83D
:102C90002010704780620F4010B50320FE49086085
:102CA00000BFFD48001D006810F0010FF9D000239F
:102CB0004FF450720721012006F086FC01221146D4
:102CC000104600F0C3FB00234FF45072082101208E
:102CD00006F07AFC01220221104600F0B7FB002327
:102CE0004FF450720921012006F06EFC01220421EC
:102CF000104600F0ABFB00234FF450720A21012074
:102D000006F062FC01220821104600F09FFB002320
:102D10004FF450720B21012006F056FC01221021C5
:102D2000104600F093FB00234FF450720C21012059
:102D300006F04AFC01222021104600F087FB002308
:102D40004FF450720D21012006F03EFC012240217B
:102D5000104600F07BFB00234FF450720E2101203F
:102D600006F032FC01228021104600F06FFB0023A8
:102D70004FF450720521012006F026FC01221102B9
:102D8000104600F063FB00234FF450720521012030
:102D900006F01AFC01225102104600F057FB0023F6
:102DA0004FF450720921022006F00EFC012291021C
:102DB000104600F04BFB00234FF450720B21022011
:102DC00006F002FC0122D102104600F03FFB002376
:102DD0004FF450720C21022006F0F6FB0122110381
:102DE000104600F033FB00234FF450720D210220F7
:102DF00006F0EAFB01225103104600F027FB0023F6
:102E000040221946042006F0DFFB002201210220A7
:102E100000F01CFB002340220121042006F0D4FB1B
:102E200000220221084600F011FB0023402202216B
:102E3000042006F0C9FB00220421022000F006FB5A
:102E4000002340220321042006F0BEFB00220821BB
:102E5000022000F0FBFA002340220421084606F07D
:102E6000B3FB00221021022000F0F0FA00234022E0
:102E70000521042006F0A8FB00222021022000F0FA
:102E8000E5FA002340220621042006F09DFB0022E3
:102E90004021022000F0DAFA002340220721052019
:102EA00006F092FB00228021022000F0CFFA0023DE
:102EB00040220C21062006F087FB00224FF480718F
:102EC000022000F0C3FA002340221946052006F034
:102ED0007BFB00224FF40071022000F0B7FA0023C0
:102EE00040220121052006F06FFB00224FF4806193
:102EF000022000F0ABFA002340220221052006F058
:102F000063FB00224FF40061022000F09FFA0023CF
:102F100040220321052006F057FB00224FF4805188
:102F2000022000F093FA002340220421052006F03D
:102F30004BFB00224FF40051022000F087FA0023DF
:102F400040220521084606F03FFB00224FF4804155
:102F5000022000F07BFA002340220621052006F023
:102F600033FB00224FF40041022000F06FFA0023EF
:102F700040221946012006F027FB002210211046AE
:102F800000F064FA002340220A21022006F01CFB14
:102F900000224FF48041104600F058FA00234022EE
:102FA0000121084606F010FB00224FF48071104604
:102FB00000F04CFA002340220221012006F004FB1D
:102FC00000224FF40071104600F040FA01234FF444
:102FD00010720421072006F0F7FA012211030320E2
:102FE00000F034FA4FF480510320FFF74FFE002326
:102FF0004FF410720121062006F0E6FA0122114674
:10300000032000F023FA01210320FFF73FFE0023F5
:103010004FF410720221062006F0D6FA0122022196
:10302000032000F013FA02210320FFF72FFE0023F4
:103030004FF410720321062006F0C6FA0122042183
:10304000032000F003FA04210320FFF71FFE0023F2
:103050004FF410720421062006F0B6FA002208216F
:10306000032000F0F3F908210320FFF70FFE0023EF
:103070004FF410720521062006F0A6FA0022102156
:10308000032000F0E3F910210320FFF7FFFD0023E8
:103090004FF41072062101E010140540084606F0B6
:1030A00093FA00222021104600F0D0F920210020C0
:1030B000FFF7ECFD04234FF410720721062006F001
:1030C00083FA00224FF40041052000F0BFF94FF4CD
:1030D00000410520FFF7DAFD04234FF410720821A8
:1030E000062006F071FA01221104052000F0AEF965
:1030F0004FF480310520FFF7C9FD00234FF4107213
:103100000921062006F060FA01222021032000F0A8
:103110009DF920210320FFF7B9FD00234FF4107221
:103120000A21062006F050FA01224021032000F077
:103130008DF940210320FFF7A9FD00234FF4107201
:103140000521072006F040FA01225103032000F078
:103150007DF94FF400510320FFF798FD04234FF44D
:1031600010720821184606F02FFA012211030520DB
:1031700000F06CF94FF48051052000F07BF9042336
:103180004FF410720921184606F01EFA012251036D
:10319000052000F05BF94FF40051052000F06AF9BA
:1031A00004234FF410720A21184606F00DFA01228A
:1031B0009103052000F04AF94FF48041052000F00A
:1031C00059F900234FF410721946072006F0FCF954
:1031D00001221102032000F039F94FF4807103201D
:1031E00000F048F9062358221946022006F0ECF9AF
:1031F0000423DA010521022006F0E6F9012220214C
:10320000052000F023F90423DA010321022006F04F
:10321000DBF901220821052000F018F9082105201A
:10322000FFF734FD20210520FFF730FD0023402269
:103230000321072006F0C8F900224FF400610320A3
:1032400000F004F9002340220621032006F0BCF917
:1032500000224021104600F0F9F804234022072103
:10326000032006F0B1F900224FF48061052000F040
:10327000EDF8042340220821032006F0A5F90022DE
:103280004FF40061052000F0E1F804234FF41072C0
:103290000221084606F098F900220421052000F0DA
:1032A000D5F8002340220121072006F08DF90022E5
:1032B0004FF40071032000F0C9F8002340220221DE
:1032C000072006F081F900224FF48061032000F00E
:1032D000BDF8042340220121032006F075F90022E5
:1032E0004FF48071052000F0B1F804234022022140
:1032F000032006F069F900224FF40071052000F068
:10330000A5F810BD072800DD704704291ED31B4A0D
:103310001268012383409A43184B1A6011F0040F7E
:1033200003D0012282409A6003E001228240134BC5
:10333000DA6011F0080F04D0012282400F4B5A616D
:103340001AE0012282400D4B9A6115E00B4A126887
:10335000012383401A43094B1A6011F0010F03D077
:10336000012282409A6103E001228240034B5A61AC
:1033700001228240014B9A6000BFC5E700700840FF
:1033800030B5072800DD30BD04281ADA1E4B1B6853
:10339000C500FF24AC40A3431B4C236023461B689D
:1033A000C40002FA04F42343174C236023461B682D
:1033B000052404EBC00401FA04F42343124C2360F7
:1033C00020E0114B1B1D1B68041FE500FF24AC40CF
:1033D000A3430D4C241D236023461B68041FE400F7
:1033E00002FA04F42343084C241D236023461C687E
:1033F000031F052505EBC30301FA03F31C43024B2E
:103400001B1D1C6000BFBEE7006E08400349496AEF
:10341000012282401143014A516270470070084006
:1034200001460548406A01228A40104201D001202D
:1034300070470020FCE70000007008400146024889
:1034400050F821007047000000610F4010B53AB1FC
:10345000074B53F820300B43054C44F8203006E06E
:10346000034B53F820308B43014C44F8203010BDFF
:1034700000600F40014A42F82010704700620F4080
:1034800010B50D48806884B20C48008CA04206D16B
:103490000B4800880B490988B0EBE10F0BD000F016
:1034A000A5F906490886044880680884054800880C
:1034B000C0100349088010BD00610F404021081072
:1034C00094000810D000081010B5344880683449C2
:1034D000088432480068C0F300103249098840EA85
:1034E00001003149D1F8001101F4804140EA513026
:1034F0002B49C8832D480088C8842D480068C0F334
:103500004F00C8852B48007881F838002948417859
:10351000234880F8391027488178214880F83A10EC
:103520002448C1781E4880F83B10224801791C4885
:1035300080F83C101F484179194880F83D101D481B
:103540008179174880F83E101A48C179144880F8EC
:103550003F1017480088C0F3470423464FF0A602E7
:103560004FF007010E4800F1380002F041F912480F
:10357000006830B10A48808C40F480400849888453
:1035800005E00748808C20F480400549888420228B
:1035900003490A4806F00AF810BD000000610F4018
:1035A00040210810DC00081000600F40007300206C
:1035B000D00008101A010810247100208C21081076
:1035C00030B503461C46002002E00D5C2554401C2B
:1035D0009042FAD3014D2B6030BD0000043404400A
:1035E000002003490860012002490860704700007C
:1035F0000034044010010810594A1268594B1B88C6
:10360000B2EB932F7ED0574A12889212544B1A6015
:10361000554A92F8362012F0010F74D0524A128E99
:10362000D24390B210F0100F0AD04F4A92F83620D1
:1036300012F0800F02D040F4805001E040F40050BE
:1036400010F0070F49D10022484B1A700122484B55
:103650001A700022474B1A80474B1A80474B1A803A
:10366000474B1A80474B1A80474B1A80474B1A70BA
:10367000474B1A70474B1A70002120E00022464B3E
:1036800043F821209FED450A454A02EB810282ED75
:10369000000A9FED420A424A183202EB810282ED93
:1036A000000A00233F4A22F8113032F811303E4A16
:1036B00022F8113000233D4A42F82130491C0629E6
:1036C000DCDB294A928C22F08002274B9A841A462E
:1036D000928C42F040029A8402E00122234B1A703D
:1036E0000622334B1A7010F4807F01D000221A702A
:1036F00010F4007F02D001222D4B1A7010F4806F5D
:1037000005D001E027E027E00222294B1A7010F4CF
:10371000006F02D00322264B1A7010F4805F02D093
:103720000422234B1A7010F4005F02D00522204BB4
:103730001A7010F0010F02D001221E4B1A8010F0F7
:10374000020F02D00A221B4B1A8010F0040F06D081
:103750006422184B1A8002E00022044B1A70704752
:10376000BC000810D0000810402108108500081087
:10377000E400081000730020087300200C73002080
:1037800010730020187300201C73002031010810F2
:103790003201081033010810E82208100000000070
:1037A00010210810DC2208104C23081000220810F9
:1037B000840008108200081010B508220021084675
:1037C000FFF7DEFD0C210020FFF79CFD0020FFF736
:1037D0001DFE202001F052FD0248808C0249086045
:1037E00010BD000040210810680108102DE9F041CB
:1037F00000240020FFF722FE07460520FFF71EFEEB
:1038000005460320FFF71AFE064617F0400F01D0C9
:1038100044F002040520FFF711FE054615F4806F01
:1038200001D044F0010415F4007F01D044F4807409
:1038300015F4807F01D044F4806415F4006F01D04A
:1038400044F4805415F0040F02D024F4005401E035
:1038500044F4005444F010040320FFF7EFFD064643
:1038600016F4006F01D044F0040416F4806F01D008
:1038700044F4007416F4007F01D044F40064204640
:10388000BDE8F08170B500252E4800882E490988D2
:10389000C0EB5104002C02DA4FF6FF700444B4F57B
:1038A0007A7F09DD2948007830B90020284908606E
:1038B00008460088274988832448007800283FD09C
:1038C0000021254803F09EF91F48008840081D4943
:1038D00008802248006860B320480068801C00EE21
:1038E000100AB8EE400ADFED1E0A80EE801ABCEE28
:1038F000C10A10EE105A1B480078401C1949087084
:1039000000201949088011490870144908600120F5
:1039100016490870284600F02DF850B10C48008870
:103920000C49888302201249088000200D49087044
:1039300000250020054908700121074803F062F9BD
:1039400070BD0000C0000810D0000810040108106D
:10395000640108104021081000400C4008010810C4
:103960008096184BC200081000010810430108108F
:103970000201081070B503462248234D2D7840F807
:10398000253021480078401C1F4D287028460078BB
:10399000052835DB00221EE0002116E0194850F80A
:1039A00021500646481C56F8200085420BD9304667
:1039B00050F821400546481C55F8200045F82100E4
:1039C000481C45F82040481CC1B2C2F1040088429E
:1039D000E4DC501CC2B2042ADEDB0C48006832254D
:1039E0006843084DAD68322606FB05006425B0FB30
:1039F000F5F0064D28600020034D2870012070BDB1
:103A00000020FCE7A42308106001081064010810DE
:103A100010B58AB010246248808962490968C1F3F0
:103A20004F01081A5E49086008460068002806DA57
:103A3000084600684FF6FF71084459490860584825
:103A40000068B0F5966F0ADD012057490870002024
:103A50005349488153480068C0F34F008881524859
:103A60000078002875D04E484089002871D14C4913
:103A700008744E480078401C4C490870084600788D
:103A8000032190FBF1F201FB120020B1012830D09C
:103A9000022850D13EE046480088C0F3090045495D
:103AA000898EC1F30901884202D143480078F8B1F8
:103AB0000F204249087000204149087001243D4808
:103AC000808EC043C0B28DF808003A48808E6FEAFD
:103AD0002020C0B28DF8090002AB0846009402789D
:103AE00036480178012001F091FE0020324908702B
:103AF00021E002203149087000203149087010246B
:103B000002AB0846009402782C480178012001F0AD
:103B10007DFE10E001202949087000202849087026
:103B2000012402AB08460094027824480178012061
:103B300001F06CFE00BF00BF1A480068C0F34F00E0
:103B400017498881A520488100201749087012E094
:103B5000FFE71348408970B111480068642801DB11
:103B600001F0A6FC0E480068B0F57A7F03DD002066
:103B70000B49087448810A48007C03280ED110487C
:103B800001780E480078FEF76BFC002004490874A9
:103B900048810120044908700AB010BD0020FBE7ED
:103BA000B8230810D0000810720108107101081025
:103BB0006C010810402108106E0108106F010810F8
:103BC0007001081000B597B09FEDFE0B8DED120B44
:103BD0009FEDFE0A8DED110A05F0E4F905F03CFBBE
:103BE00005F0E0F9FA48808C10F0800F01F01F8397
:103BF000F848007888B30020159028E0F648159919
:103C000050F82120F54840F82120F349183915983B
:103C100051F82010F14A183A42F82010EF4815994F
:103C200050F8210000EE100AB8EEC00AEC48D0EDC2
:103C3000000A20EE200AD0ED000A20EE200AE94812
:103C400000EB810080ED000A1598401C1590159836
:103C50000628D3DB0020E4490870DE4800780028FD
:103C60007ED0DC48007810F0C00F08D0D84890F81B
:103C7000360010F0010F02D03F20D6490870002016
:103C8000159054E20121159801FA00F0D149097804
:103C9000084266D0D548007888B3D549159851F8C0
:103CA0002010D44A02EB800090ED000ABDEEC00A5D
:103CB00010EE100A0144CE4A159842F82010114621
:103CC000159851F82020C5481830159940F8212042
:103CD000C849159801EB8000D0ED000A159801EB5A
:103CE000800090ED000ABDEEC00AB8EEC00A30EECA
:103CF000C00A159801EB800080ED000A10E0FFE794
:103D0000B5481830159950F82120B448183040F8BB
:103D10002120159950F82110B54A159842F8201025
:103D2000AE491839159851F8200000EE100AB8EE87
:103D3000C00AAB48D0ED000A20EE200AA949183984
:103D4000159801EB800080ED000A159801EB8000CA
:103D500090ED000AB5EEC00AF1EE10FA09D101E0CB
:103D6000ECE1E1E1B7EE000A159801EB800080ED8F
:103D7000000A9E480078002869D09F49159851F89C
:103D8000200040009D49098848430790FCF7BDFB8F
:103D900041EC100B8DED080B9FED990B53EC102BA4
:103DA0009DED080B51EC100BFCF740FB41EC100BA8
:103DB0008DED0A0B9FED940B53EC102B9DED0A0B30
:103DC00051EC100BFCF719FA41EC100B8DED0E0BBA
:103DD0008749159851F820000990FCF796FB41ECB3
:103DE000100B8DED0A0B9DED0A0B05F06FF98DEDB3
:103DF0000C0B9DED0E0B53EC102B9DED0C0B51ECB1
:103E0000100BFCF7EBFB22D87C48008864281EDAF4
:103E100074491839159801EB800090ED000AF0EE16
:103E2000000A80EE201A159801EB800080ED001A40
:103E30006C48159900EB810090ED000AF0EE000A45
:103E400080EE201A674800EB810080ED001A63497C
:103E50001839159851F8200000EE100AB8EEC00A83
:103E60005F4890ED001AC0EE010A5C48159950F8C1
:103E7000210000EE100AB8EEC00A80EE801A5949FF
:103E80001839159801EB800090ED000A21EE000A28
:103E9000BDEEC00A10EE100A5D4A159942F82100E5
:103EA0004F480068FCF787FB41EC100B8DED0C0BC5
:103EB0004C491839159851F820000790FCF77BFB06
:103EC00041EC100B8DED080B9FED520B53EC102BBA
:103ED0009DED080B51EC100BFCF736FA41EC100B82
:103EE0008DED0A0B9DED0C0B53EC102B9DED0A0B89
:103EF00051EC100BFCF79AFA41EC100B8DED0E0B08
:103F00009DED0E0B51EC100BFCF71DFB434A159970
:103F100042F821004249159801EB800090ED000A1B
:103F200020EE000A2F48159900EB8100D0ED000A21
:103F3000B0EE001A60EE810A80EE201ABDEEC10AD2
:103F400010EE100A374A42F821003149159851F80D
:103F500020000B90FCF7D9FA41EC100B8DED0E0B05
:103F60003049159851F820000790FCF7CEFA41EC43
:103F7000100B8DED0A0B19481830159950F82100D7
:103F80000590FCF7C2FA41EC100B8DED060B9DED90
:103F9000060B05F09BF88DED080B9DED0A0B53EC1D
:103FA000102B9DED080B51EC100BFCF726F941ECA2
:103FB000100B8DED0C0B9DED0E0B53EC102B9DEDAE
:103FC0000C0B31E0000000000000000000000000C9
:103FD00040210810E3000810E821081030220810E2
:103FE000C800081030230810E400081085000810ED
:103FF000E822081000230810782208108200081018
:104000000000000000005940000000000000F03FE8
:10401000902208109A9999999999C93FA822081055
:1040200010210810C022081051EC100BFCF7D6FA32
:1040300072D2FE48159950F821000790FCF7BBFAA0
:1040400041EC100B8DED0A0BF949159851F8200041
:104050000390FCF75AFA41EC100B8DED060BF54876
:10406000159950F821000190FCF74FFA41EC100B24
:104070008DED020B9DED020B05F028F88DED040B84
:104080009DED060B53EC102B9DED040B51EC100B2A
:10409000FCF7B3F841EC100B8DED080B9DED0A0B0E
:1040A00053EC102B9DED080B51EC100BFCF74CF969
:1040B00041EC100B8DED0C0B9DED0C0B05F078F821
:1040C0008DED0E0B9DED0E0B51EC100BFCF7AEFAC7
:1040D000D64A183A159942F821001146159801EB75
:1040E000800090ED000AF0EE000AB4EEE00AF1EE76
:1040F00010FA06D2B0EE000A159801EB800080EDB0
:10410000000A0121159801FA00F0CB49097808430B
:10411000C949087008E0FFE7012115988140C648A9
:1041200000788843C44908701598401C159015986C
:104130000628FFF6A7AD0020C0490870C0480068F7
:104140004FF41671B1FBF0F0BE49098888427DD961
:104150000020159071E30121159801FA00F0BA4989
:104160000978084273D00121159801FA00F0B74987
:1041700009780843B5490870B549159851F82000E9
:10418000002865DAB349159801EB800090ED000A2C
:10419000A6491839159801EB8000D0ED000ABFEE52
:1041A000001A60EE810AB4EEE00AF1EE10FA70DD5A
:1041B000A849159801EB800090ED000A9B481599DD
:1041C00000EB8100D0ED000A30EE600AA14915989D
:1041D00001EB800080ED000A159801EB800090ED66
:1041E000000A92491839159801EB8000D0ED000AB9
:1041F000BFEE001A60EE810AB4EEE00AF1EE10FAAA
:1042000048D2159801EB800090ED000AFFEE000AFD
:1042100020EE200A8F49159801EB800080ED000AFE
:10422000159801EB800090ED000A01F11800159936
:1042300000EB8100D0ED000A30EE200A8DED0B0A74
:104240000B98FCF7B8F941EC100B02E0F5E3F1E252
:104250009CE08DED0C0B12A89DED0C0B04F040FFC3
:104260008DED0E0B9DED0E0B51EC100BFCF7DEF9F6
:1042700078491831159A41F822009DED120B51EC46
:10428000100BFCF760F902B27348159920F8112061
:1042900092E135E06F49159801EB800090ED000A3E
:1042A00001F11800159900EB8100D0ED000A30EE05
:1042B000200A8DED0B0A0B98FCF77DF941EC100BF1
:1042C0008DED0C0B12A89DED0C0B04F009FF8DED8C
:1042D0000E0B9DED0E0B51EC100BFCF7A7F95D4991
:1042E0001831159A41F822009DED120B51EC100B7C
:1042F000FCF729F902B25848159920F811205BE122
:104300004A491839159801EB800090ED000AFFEE3C
:10431000000A20EE200A4F49159801EB800080ED3D
:10432000000A159801EB800090ED000A01F11800D9
:10433000159900EB8100D0ED000A30EE200A8DEDDA
:104340000B0A0B98FCF737F941EC100B8DED0C0BB9
:1043500012A89DED0C0B04F0C3FE8DED0E0B9DED30
:104360000E0B51EC100BFCF761F93A491831159A14
:1043700041F822009DED120B51EC100BFCF7E3F815
:1043800002B23548159920F8112015E130491598E9
:1043900051F8200000287DDD2E49159801EB8000A2
:1043A00090ED000A21491839159801EB8000D0EDF5
:1043B000000AB4EEE00AF1EE10FA6CD22549159825
:1043C00001EB800090ED000A1848159900EB810080
:1043D000D0ED000A30EE200A1E49159801EB80004E
:1043E00080ED000A159801EB800090ED000A0F495E
:1043F0001839159801EB8000D0ED000AB4EEE00A00
:10440000F1EE10FA5ADD159801EB800090ED000AEC
:104410001049159801EB800080ED000A159801EB1A
:10442000800090ED000A01F1180017E03023081019
:10443000C022081048220810E5000810E300081008
:104440003073002000730020330108103101081080
:10445000E822081010210810DC220810159900EB42
:104460008100D0ED000A30EE200A8DED0B0A0B988A
:10447000FCF7A1F841EC100B8DED0C0B12A89DED93
:104480000C0B04F02DFE8DED0E0B9DED0E0B51EC83
:10449000100B01E087E046E0FCF7C8F8FE49159AEA
:1044A00041F822009DED120B51EC100BFCF74BF87C
:1044B00002B2FA48159920F811207DE0F649183922
:1044C000159801EB800090ED000AF348159900EB78
:1044D0008100D0ED000A30EE200A8DED0B0A0B981A
:1044E000FCF769F841EC100B8DED0C0B12A89DED5B
:1044F0000C0B04F0F5FD8DED0E0B9DED0E0B51EC4C
:10450000100BFCF793F8E449159A41F822009DED51
:10451000120B51EC100BFCF716F802B2DF4815999C
:1045200020F8112048E0DE49159801EB800090ED5D
:10453000000AD9491839159801EB800080ED000A6E
:10454000159801EB800090ED000AD348159900EB17
:104550008100D0ED000A30EE200A8DED0B0A0B9899
:10456000FCF729F841EC100B8DED0C0B12A89DED1A
:104570000C0B04F0B5FD8DED0E0B9DED0E0B51EC0B
:10458000100BFCF753F8C449159A41F822009DED31
:10459000120B51EC100BFBF7D6FF02B2BF48159976
:1045A00020F8112008E0012115988140BD480078CD
:1045B0008843BC490870FCE3B9481830159900EBF2
:1045C000810090ED000ABDEEC00A10EE100A801CBA
:1045D000B5490860B148159930F91120B34830F950
:1045E0001100101A109001D4109801E01098404268
:1045F000AD490968884215DDAC48159930F811209D
:10460000A64820F81120A948159930F9110000EEAC
:10461000100AB8EEC00AA0491839159801EB8000BD
:1046200080ED000A9D48159930F91100109000287E
:1046300001DB109801E0109840420B90FBF765FFFA
:1046400041EC100B8DED0E0B9949159851F8200097
:104650000990FBF75AFF41EC100B8DED0A0B9DED15
:104660000A0B04F033FD8DED0C0B9DED0E0B53EC9E
:10467000102B9DED0C0B51EC100BFBF7AFFF2CD268
:104680008B49159831F8200002B28448159920F81A
:104690001120159930F9110000EE100AB8EEC00A89
:1046A0007D491839159801EB800080ED000A012141
:1046B000159881407B48007888437A4908707C4986
:1046C000159851F820207548159930F91100111AE4
:1046D000774A159842F820106BE37549159851F800
:1046E00020206E48159930F91100111A704A15985A
:1046F00042F820106F49159851F82000109000EBF7
:10470000D07040100B90FBF700FF41EC100B8DEDCB
:104710000E0B6749159851F820000990FBF7F5FE3C
:1047200041EC100B8DED0A0B9DED0A0B04F0CEFC55
:104730008DED0C0B9DED0E0B53EC102B9DED0C0B2A
:1047400051EC100BFBF74AFF10D80121159801FA24
:1047500000F059490978084208D101211598814093
:104760005048007888434F49087022E3012115988A
:1047700001FA00F05049097808425BD04748159982
:1047800030F911000F90002801DB0F9901E00F981C
:104790004142434A159802EB800090ED000ABDEEBD
:1047A000C00A8DED100A1098002801DB109801E076
:1047B0001098404281423DDB3E49159851F8200057
:1047C000C1170F9000EB917081103C4A159852F878
:1047D0002000109000EBD07001EB60000990FBF717
:1047E00094FE41EC100B8DED0C0B3149159851F8EE
:1047F00020000790FBF789FE41EC100B8DED080BB4
:104800009DED080B04F062FC8DED0A0B9DED0C0B89
:1048100053EC102B9DED0A0B51EC100BFBF7DEFE59
:1048200008D80121159881401E48007888431D4909
:104830000870BEE21598401C159015980628FFF6E2
:104840008AAC002014901490FEE30121149801FA20
:1048500000F01B49097808427DD00121149801FA23
:1048600000F010490978084275D11249149851F89E
:104870002000109000EBD07040100B90FBF745FE2D
:1048800041EC100B8DED0E0B0949149851F82000E6
:104890000990FBF73AFE15E028210810DC220810E9
:1048A0001823081033010810340108104C23081095
:1048B000E822081090220810E5000810C022081015
:1048C0003101081041EC100B8DED0A0B9DED0A0B28
:1048D00004F0FCFB8DED0C0B9DED0E0B53EC102B3F
:1048E0009DED0C0B51EC100BFBF78CFE09D2012156
:1048F000149801FA00F0FE4909780843FC49087051
:10490000D2E3FC49149851F820000B90FBF7FDFD11
:1049100041EC100B8DED0C0B9DED0C0B04F0D6FB58
:104920008DED0E0B9FEDF40B53EC102B9DED0E0B4C
:1049300051EC100BFBF766FE7ED2F148149950F84B
:1049400021000990FBF737FE41EC100B8DED0C0BAD
:10495000EC48006800E09FE3FBF72DFE41EC100BF4
:104960008DED020B9DED020B53EC102B9FEDE60B32
:1049700051EC100BFBF75AFD41EC100B8DED060BC3
:10498000E0480068FBF717FE41EC100B8DED020BC1
:104990009DED020B53EC102B9FEDDB0B51EC100B3C
:1049A000FBF744FD41EC100B8DED040B9DED060B68
:1049B00053EC102B9DED040B51EC100BFBF7C4FCDA
:1049C00041EC100B8DED080B9FEDD10B53EC102B30
:1049D0009DED080B51EC100BFBF7B6FC41EC100BF6
:1049E0008DED0A0B9DED0C0B53EC102B9DED0A0B7E
:1049F00051EC100BFBF7A8FC41EC100B8DED0E0BEE
:104A00009DED0E0B51EC100BFBF710FE1190119861
:104A1000FBF7D1FD41EC100B8DED0E0BB549149851
:104A200051F820000990FBF770FD41EC100B8DED63
:104A30000A0B9DED0A0B01E0ECE2B7E304F046FB44
:104A40008DED0C0B9DED0E0B53EC102B9DED0C0B17
:104A500051EC100BFBF7D6FD7DD2AA480068FBF79E
:104A6000AAFD41EC100B8DED060B9DED060B53ECF2
:104A7000102B9FEDA50B51EC100BFBF7D7FC41EC75
:104A8000100B8DED0A0B9E48149950F821000790E9
:104A9000FBF791FD41EC100B8DED080B9DED0A0B22
:104AA00053EC102B9DED080B51EC100BFBF74CFC5D
:104AB00041EC100B8DED0E0B9749149851F8200026
:104AC0000990FBF778FD41EC100B8DED0A0B9DED85
:104AD0000A0B04F0FBFA8DED0C0B9DED0E0B53EC65
:104AE000102B9DED0C0B51EC100BFBF777FD59D201
:104AF0008049149851F82000002801DD012001E0D0
:104B00004FF0FF300990FBF700FD41EC100B8DEDED
:104B10000C0B7C480068FBF74EFD41EC100B8DED53
:104B2000040B9DED040B53EC102B9FED770B51EC18
:104B3000100BFBF77BFC41EC100B8DED080B704864
:104B4000149950F821000590FBF735FD41EC100B4E
:104B50008DED060B00E025E09DED080B53EC102BCE
:104B60009DED060B51EC100BFBF7EEFB41EC100B2F
:104B70008DED0A0B9DED0C0B53EC102B9DED0A0BEC
:104B800051EC100BFBF7E0FB41EC100B8DED0E0B25
:104B90009DED0E0B51EC100BFBF748FD5E4A14998E
:104BA00042F821005C49149801EB800090ED000A66
:104BB000B5EEC00AF1EE10FA7EDD149801EB80002C
:104BC00090ED000A4E48149900EB8100D0ED000AE8
:104BD00030EE600A5049149801EB800080ED000A25
:104BE000149801EB800090ED000AB5EEC00AF1EEDA
:104BF00010FA17D24948149930F9110000EE100A42
:104C0000B8EEC00A4449149801EB800080ED000A18
:104C10003849149831F8200002B24148149920F81C
:104C20001120D0E03C49149801EB800090ED000A7F
:104C300001F11800149900EB8100D0ED000A30EE6C
:104C4000200ABDEEC00A10EE100A02B2344820F865
:104C500011203149149801EB800090ED000A01F118
:104C60001800149900EB8100D0ED000A30EE200A04
:104C70008DED0B0A0B98FBF79EFC41EC100B8DEDB4
:104C80000C0B12A89DED0C0B04F02AFA8DED0E0B07
:104C90009DED0E0B51EC100BFBF7C8FC1E491831B3
:104CA000149A41F822009DED120B51EC100BFBF70A
:104CB0004AFC02B21A4800E003E0149920F81120DF
:104CC00081E01549149801EB800090ED000A0C4832
:104CD000149900EB8100D0ED000A30EE200A0E4955
:104CE000149801EB800080ED000A14981AE000008F
:104CF00033010810E8220810000000000000000046
:104D000030230810C80008109A9999999999B93FC9
:104D1000000000000000E03F1021081004210810EE
:104D2000DC22081001EB800090ED000AB5EEC00A0D
:104D3000F1EE10FA10DD9FEDFE0A149801EB8000F1
:104D400080ED000AFB49149831F8200002B2FA48BD
:104D5000149920F8112036E0F849149801EB8000EE
:104D600090ED000A01F11800149900EB8100D0EDDC
:104D7000000A30EE200A8DED0B0A0B98FBF71BFCA6
:104D800041EC100B8DED0C0B12A89DED0C0B04F0FB
:104D9000A7F98DED0E0B9DED0E0B51EC100BFBF7F3
:104DA00045FCE6491831149A41F822009DED120B9A
:104DB00000E079E151EC100BFBF7C5FB02B2DE48D5
:104DC000149920F81120DD49149851F820000B9017
:104DD000FBF7F1FB41EC100B8DED0C0B9DED0C0B7B
:104DE00004F074F98DED0E0B1FED370B53EC102B07
:104DF0009DED0E0B51EC100BFBF7F0FB42D2CD49B1
:104E0000149851F82000E8B3149851F820000028B5
:104E100001DD012001E04FF0FF300990FBF775FB49
:104E200041EC100B8DED0C0BC548149900EB810083
:104E300090ED000AF0EE000A20EE200A8DED070A40
:104E40000798FBF7B8FB41EC100B8DED080B1FED3D
:104E5000500B53EC102B9DED080B51EC100BFBF796
:104E6000CCF941EC100B8DED0A0B9DED0C0B53ECC6
:104E7000102B9DED0A0B51EC100BFBF765FA41EC82
:104E8000100B00E040E08DED0E0B9DED0E0B51EC94
:104E9000100BFBF7CBFBA94A149942F821001146ED
:104EA000149801EB800090ED000A01F118001499AC
:104EB00000EB8100D0ED000A30EE200A8DED0B0AE8
:104EC0000B98FBF778FB41EC100B8DED0C0B12A847
:104ED0009DED0C0B04F004F98DED0E0B9DED0E0B0A
:104EE00051EC100BFBF7A2FB94491831149A41F8CE
:104EF00022009DED120B51EC100BFBF724FB02B2CC
:104F00008D48149920F811208D48149900EB8100E8
:104F100090ED000ABDEEC00A10EE100A801C89490F
:104F200008608548149930F91120874830F911003C
:104F3000101A109001D4109801E010984042814955
:104F40000968884213DD8048149930F8110038B19F
:104F50007D48149930F81120774820F8112006E098
:104F60007A48149930F81120734820F811207248BB
:104F7000149930F911001090002801DB109801E01D
:104F8000109840420B90FBF7C0FA41EC100B8DEDEE
:104F90000E0B6849149851F820000990FBF7B5FAF8
:104FA00041EC100B8DED0A0B9DED0A0B04F08EF811
:104FB0008DED0C0B9DED0E0B53EC102B9DED0C0BA2
:104FC00051EC100BFBF71EFB0DD25A49149851F807
:104FD00020205948149930F91100111A554A149893
:104FE00042F820101BE05349149831F8200002B217
:104FF0005148149920F8112000214E4A149842F883
:1050000020109FED4B0A4D49149801EB800080ED74
:10501000000A04E000224848149920F8112048486A
:10502000149900EB810090ED000ABDEEC00A10EE6D
:10503000100A801C434908603F48149930F9112038
:10504000414830F9110000E029E0101A109001D415
:10505000109801E0109840423A490968884214DDEE
:105060003948149930F81120334820F81120364877
:10507000149930F9110000EE100AB8EEC00A2F4959
:10508000149801EB800080ED000A2B48149930F849
:1050900011202D4820F811201498401C14901498C9
:1050A0000628FFF6D2AB00BF2948007800287DD043
:1050B000002015900FE00121159801FA00F0244915
:1050C0000978084204D100221B48159920F81120C4
:1050D0001598401C159015980628ECDB1D480068B3
:1050E00000090BD01B48007800F00301124830F88B
:1050F0001110001F418100210E48C1601548406811
:1051000000090BD01348007900F003010A4830F879
:105110001110001F81810020064908610D48806838
:10512000000920D00B48007A00F00301024813E088
:1051300000000000E8220810DC22081010210810EE
:1051400030230810340108104C23081004210810E3
:10515000310108108021081030F81110001FC181A2
:105160000020344948613448806934490860344833
:105170003449098800EB011008223049109004F0EE
:1051800015FA0020159040E02A49159851F82000A2
:1051900040BB00222948001D159920F811201FED61
:1051A0001C0A2949159801EB800000E03FE080EDE2
:1051B000000A1FED210A01F11800159900EB81008A
:1051C00080ED000A0121159881402048007888432D
:1051D0001E4908700121159881401D4800788843B8
:1051E0001B4908701548001D159930F81120194801
:1051F00020F811201148001D159930F8112016488B
:1052000020F811201598401C159015980628BBDB36
:105210000E48007810B900201049087004F018F901
:1052200028B90F48008840F001000D49088017B0E8
:1052300000BD0000E822081040210810D822081004
:1052400000500020087300201021081031010810C0
:10525000330108104C2308100421081032010810F3
:105260002201081000F01F020121914042094FF075
:10527000E02303EB8202C2F80011704700F01F0226
:105280000121914042094FF0E02303EB8202C2F872
:105290000011704710B5002807DA4A07140E054AB6
:1052A00000F00F031B1FD45403E04A07130E024AF9
:1052B000135410BD18ED00E000E400E00C48006855
:1052C0000C4908620A484068486209488068886258
:1052D0000748C068C8620648006908630448406916
:1052E0004863034880698863AC2008607047000009
:1052F000402108100010044010B5544800780028E0
:105300007ED05348008800287BD05248806850499E
:105310000988491E01228A4010404F49B1F9001006
:1053200048404B490988491E01228A40104275D0E5
:105330004A480078401C494908700846007803280C
:105340005FDD00210846FDF7D7F80021444801F051
:1053500059FC012043490860002043494860434804
:10536000C8600846FDF7B0F900204149087041497E
:1053700008804149088041490880414908804149E5
:1053800008804149088041490870414908704149F5
:105390000870324908704048808C40F010003E4947
:1053A000888400241AE000203C4941F824009FED45
:1053B0003C0A3C4800EB840080ED000A9FED380A6F
:1053C0003848183000EB840080ED000A0021364890
:1053D00020F81410354840F82410641C062CE2DB39
:1053E0000020234908701A4908801A4880680988F3
:1053F000491E01228A40104000B21749088002E08D
:1054000010E021E00AE00020104908700121FDF7BA
:1054100073F80121124801F0F5FB15E000200F4957
:10542000087011E00B48806809490988491E01226B
:105430008A40104000B208490880002004490880D2
:105440000B4908700549087010BD0000E200081003
:10545000DE00081000610F40E0000810870008100F
:105460000040084050730020802308100080002076
:105470008600081000730020087300200C730020C1
:1054800010730020187300201C73002031010810D5
:10549000320108103301081040210810E8220810DA
:1054A0000000000010210810DC2208100022081063
:1054B0007FB5002310226946664801F0F1FF0646D9
:1054C0006548008965490968C1F34F01081A6249B6
:1054D000486008464068002806DA084640684FF6EB
:1054E000FF7108445C494860002E7DD00025A9E08A
:1054F0001DF805405848007C032806D156484068EE
:10550000232802DA002004B070BD534840682328E5
:1055100008DD002050490874486050480068C0F316
:105520004F0008814D480068C0F34F004A49088188
:105530000846007C20B101280ED002287BD128E04B
:10554000012C05D10120444908740846047502E085
:1055500000204149087472E03F484475012C03D093
:10556000022C01D0012C06D100203B4948748874DC
:10557000022008740CE00F2C07D10420364948742F
:10558000002088740220087402E000203249087468
:1055900055E03148807C98B92F48407D022807D0DB
:1055A0002D48407D012803D02B48407D012807D19C
:1055B000601C2949487401208874084684753EE0BF
:1055C0002548817C407C801C814233DA2248807CE3
:1055D000801C214914310C541F48807C401C143914
:1055E00088740846817C00E031E0407C801C814268
:1055F00020D11948407CC01C174914310A5C164858
:10560000407C801C085C02EB00201439C8810846ED
:10561000407C811C10481430FBF7F8FC0E49C98906
:10562000884204D103200C49087403E003E0002001
:105630000949087403E000200749087400BF00BF4F
:10564000681CC5B2B542FFF453AF01205BE70020F0
:1056500059E7000000100840B8230810D0000810D7
:1056600010B502464FF080439B8843F004034FF08F
:105670008044A3800E4B1888014600FB02F34FF4D0
:105680007A74B3FBF4F0884200D3481E4B1F834268
:1056900000D8481E074B1880074B18804FF08043F6
:1056A0009B8823F004034FF08044A38010BD0000CA
:1056B0000001004004010040040200404FF080421D
:1056C000126842F400324FF080431A601A46928802
:1056D00042F004029A80234A1268234BB2FBF3F291
:1056E000521E9B059B8843EA42124FF080439A80EA
:1056F0001D4A92FBF0F14A1E1C4B1A804FF080436A
:10570000A3F800224FF00003194A1380194A1380AE
:105710004FF00102184B1A604FF4A0434FF0804243
:10572000C2F804334FF00103C2F8083345F2010315
:10573000C2F80C334FF00103C2F868354FF0020392
:10574000C2F86C354FF000024FF080431A654FF0FD
:1057500080625A654FF08042928822F004029A805B
:1057600070470000000008100051250200010040B1
:1057700004010040040200400003004010B5164838
:10578000006816490988B0EBA11F24D0134800888F
:1057900080111149086001211148FBF723F901210B
:1057A0000F48FBF71FF90F4948850F48007820B1D3
:1057B0000E48007881F8370003E00020094981F89D
:1057C000370002210648FBF70DF902210448FBF7D8
:1057D00009F90449888510BD90000810D000081010
:1057E00000300E404021081032010810310108102D
:1057F00070B50C4682EA0305002103E0465C6E406A
:105800004654491CA142F9DB055570BD2DE9F0470E
:105810008AB082460E4691469846129C8DF804A0A6
:105820008DF805604FEA19208DF8060009F0FF0099
:105830008DF8070000208DF808008DF80940012E32
:1058400003D0022E01D0012E13D1062101A8FBF7AF
:10585000DDFB85B2280A8DF80A00E8B28DF80B004E
:105860000023082201A92C4801F08EFE0AB0BDE8F1
:10587000F0870F2E01D0102E4BD10F2E1FD11020EC
:105880008DF8090002208DF80A0098F800008DF8C4
:105890000B0098F801008DF80C00092101A8FBF716
:1058A000B5FB85B2280A8DF80D00E8B28DF80E0020
:1058B00000230B2201A9184801F066FE28E06006CB
:1058C000000E8DF80A00002706E018F80710F81DF2
:1058D00001AA1154781CC7B2B7EB440FF5DB0720BF
:1058E00000EB440101A8FBF791FB85B2280A0721D0
:1058F00001EB440101AA5054082101EB4401555425
:10590000092000EB4402002301A9034801F03CFEFA
:10591000ACE700BFAAE70000001008402DE9F04105
:1059200006463078A2287DD022DC45287BD010DCCA
:105930003F2879D006DC032877D0172876D01B289B
:1059400075D1FCE3402873D0412872D04228F7D1AA
:10595000F6E36A286ED006DC46286CD047286BD068
:105960006928EDD199E19B2867D0A028E8D1FBE018
:10597000CB281ED00EDCB0287ED006DCA6287CD03A
:10598000AE287BD0AF28DBD165E1C92877D0CA2803
:10599000D6D16DE2E82873D006DCCC2871D0E5289A
:1059A0000FD0E628CCD160E1E9286BD0EB28C7D135
:1059B000FAE30020FD490870FD490870FD490870B0
:1059C0009EE20020FC4908704FF47A70FB490860A1
:1059D00000210846FCF790FD0021F94801F012F97A
:1059E0000020F8494860F848C8600846FCF76CFE9B
:1059F0000020F6490880F6490880F6490880F649F3
:105A00000880F6490880F6490880E8490870E849A6
:105A10000870E8490870F348808C20F08000F14954
:105A200088840BE0EBE3EBE38BE332E168E1E8E34E
:105A3000E8E3E8E3E8E3E8E3E8E362E20846808CD1
:105A400040F0400088840846808C20F01000888454
:105A5000002424E09FEDE40AE44800EB840080ED9C
:105A6000000A9FEDE10AE148183000EB840080ED68
:105A7000000A0021DE4806E0E2E0C9E3C9E3C9E329
:105A8000C9E3C9E3C9E320F81410DA4820F8141078
:105A9000D94820F81410D94840F82410641C062C6A
:105AA000D8DBD048808C20F08000CE49888408461E
:105AB000808C40F0400088840020D1490860D149A2
:105AC0000870C84890F8360020F00100C54981F8F8
:105AD0003600002425E0CC4850F8240000BB00210B
