:020000041A00E0
:10000000E82B08103101001A3501001A3701001AD7
:100010003901001A3B01001A3D01001A5A5A5A5A76
:100020000000000000000000000000003F01001A76
:100030004101001A000000004301001AA773001AD2
:100040004701001AC373001A118E001A4701001AE3
:100050004701001A4701001A4701001A4701001A18
:10006000090A001A4701001A4701001A4701001A3D
:100070004701001A4701001A4701001AD173001AFC
:100080004701001A4701001A4701001A4701001AE8
:100090004701001A4701001A4701001A4701001AD8
:1000A0004701001A4701001A4701001A4701001AC8
:1000B0004701001A4701001A4701001A4701001AB8
:1000C0001B92001A4701001A4701001A4701001A43
:1000D0004701001A4701001A4701001A4701001A98
:1000E0004701001A4701001A4701001A4701001A88
:1000F000000000004701001A4701001A4701001ADA
:10010000000000004701001A4701001A4701001AC9
:100110004701001ADFF80CD009F022FF0048004721
:100120008973001AE82B08100138FDD170470000D0
:1001300005480047FEE7FEE7FEE7FEE7FEE7FEE7CD
:10014000FEE7FEE7FEE7FEE71501001A704670477E
:100150000849094A10460A60084A094B1A60B0F17A
:10016000E05F06D1074A126842F40022064BC3F84A
:100170000022704708ED00E00000001A00D8B80522
:100180000000081000520040005000400AF0F4B88F
:100190007047002070470020704700207047002003
:1001A00070470020704700207047002070470020F3
:1001B00070470020704700207047002070470020E3
:1001C000704700207047002070470AF00BBA704754
:1001D00000207047002070470AF07CBF7047000085
:1001E00010B5014659B108200122824043094FF061
:1001F000E02404EB8303C3F8002100BF08E00820DB
:1002000001228240FE4B440943F8242000BF00BF76
:1002100010BD30B502460B4612F0800F0AD002F036
:100220007F02012404EB420002F11004012505FACB
:1002300004F103E0012404FA02F15000F14C54F8F7
:100240003040F14D05EB4015AC600124EE4D05EB5F
:1002500040152C60ED4C24680C4221D0E94C04EB95
:10026000C00464689C4206D84FF48064E64D05EBF8
:1002700040156C6019E0E34C04EBC0046468B3EB18
:10028000440F06D34FF40064DF4D05EB40156C605E
:100290000BE04FF44064DC4D05EB40156C6004E06E
:1002A0000024D94D05EB40156C60D74C04EB40148D
:1002B00064684FF4004545EA034545F080052C434A
:1002C000D14D05EB40156C60CF4C04EB4014D04D84
:1002D00005EB8015AC60CE4C04EB8014E46824F090
:1002E000C004CB4D05EB8015EC60CA4C216000BF0B
:1002F000C84C24680C42FBD130BD30B50020C64943
:10030000086001240EE0C548042101FB0400D0F878
:10031000C00120F08010C149042202FB0411C1F881
:10032000C001641C022CEED34FF0FF30BC490860C2
:100330004FF00000B949C1F87C014FF0FF30C1F81F
:100340004401B8480068C1F8AC01B7480068B64934
:10035000086000BFAF4800680028FBD14FF0FF30B5
:10036000B249086000BFB14800680028FBD1B0481E
:10037000006820F47F00A949C1F84001A44D4FF066
:10038000000402E000202855641CB4F5806FF9D306
:100390009D4D002402E000202855641CB4F5007F28
:1003A000F9D3402097494860A24808604020A249FC
:1003B000086040219348C1609E489F4909680844ED
:1003C000904988609C48006840309B490860012043
:1003D0008D49086008624FF48100486001468A48F0
:1003E00041628B49886020308864944808600864C2
:1003F0000846934908608948D0F8A80140F00800F1
:10040000904908604FF0C0108449C1F8C0017D4890
:1004100041684FF00000FFF7FCFE30BD00B5002042
:10042000FFF7DEFE8848894908668948006840F081
:1004300001008749086000BF8548001D006810F072
:10044000010FF9D07A48006840F002007349C1F802
:10045000400100BF7648006810F0020FFAD17D48D5
:10046000406820F020007B4948600A2075490860F8
:100470006A48D0F8840140F08070774908604FF0F6
:100480000900764908604FF040005E4948607448B2
:10049000006808B1802000E00020724908437249DA
:1004A000096809B1022100E0002108436F49086092
:1004B000FFF723FF0120FFF793FE00BD38B15C4931
:1004C000096841F00101554AC2F8401106E0584957
:1004D000096821F00101514AC2F840117047704784
:1004E00070475D48006840F040004C49C1F8840105
:1004F0007047704741B942065D4B1A60474AD2F8CF
:10050000542142F080721A607047014671B902208E
:1005100007E000223B4B43F8302003EBC0035A6056
:10052000401C0428F5D38022434B1A607047F0B575
:100530000246957815F0800F07D01023957825F0A6
:100540008000012505EB400102E000239078410086
:10055000D57805F003042B4D55F83150D5B9354DFC
:10056000354E36683544274E46F83150958806EBAF
:10057000C10675609588304E366835442E4E35601C
:10058000012C07D1C6180125B540204E36683543E9
:100590001E4E35601B4D55F831501B4E06EB411673
:1005A000B5600125184E06EB41163560154D05EB7B
:1005B000C105AD884FF0005646EA0545144E06EBDE
:1005C00081163560154D042606FB0055D5F8C0513F
:1005D0004FF6FF769E40B543104E042707FB00669A
:1005E000C6F8C051A5009D4040269E4035430B4EA5
:1005F00007FB0066D6F8C0613543084E3AE00000BC
:1006000080E100E0801108100011081010000810AF
:1006100000100810B0610040140008100060004095
:1006200078610040AC610040BC610040B4610040B2
:1006300040610040002008100C000810008040209D
:1006400058610040A8610040000800070000054014
:10065000281405400030044084610040A46100403B
:1006600048B1001A450101004CB1001A4861004030
:100670005461004007FB0066C6F8C051F0BD7047EA
:1006800010F0800F10D000F07F00FE49042212FB12
:100690000011D1F8C01141F40001FA4A042313FB00
:1006A0000022C2F8C0110DE0F649042202FB00113D
:1006B000D1F8C01141F08001F24A042303FB00226B
:1006C000C2F8C011704710F0800F10D000F07F000A
:1006D000EC49042212FB0011D1F8C01121F40001F1
:1006E000E84A042313FB0022C2F8C0110DE0E549DB
:1006F000042202FB0011D1F8C01121F08001E14A6F
:10070000042303FB0022C2F8C011704710B5044651
:1007100014F0800F31D004F07F04012000EB44007E
:10072000D94901EB8010007B00F0C000012101EBF2
:100730004401D54A02EB8111C86004F11000012187
:100740008140D248016000BFD048006804F1100128
:100750004FF0010202FA01F21042F5D1C94804211A
:1007600001FB0400D0F8C00140F48000C549042218
:1007700002FB0411C1F8C0012BE0C34901EBC41016
:10078000007B00F0C0000A4602EBC411C8600120E3
:10079000A040BE49086000BFBC4800684FF001019E
:1007A00001FA04F10842F7D1B648042101FB040024
:1007B000D0F8C00140F04000B249042202FB04110D
:1007C000C1F8C001B24A02EB041041682046FFF7AD
:1007D00020FD10BD10F0800F10D000F07F00A9495F
:1007E000042212FB0011D1F8C01141F48031A54A56
:1007F000042313FB0022C2F8C0110DE0A14904221A
:1008000002FB0011D1F8C01141F001019D4A0423FF
:1008100003FB0022C2F8C011704710B5044614F063
:10082000800F2BD004F07F049648042111FB0400B4
:10083000D0F8C00120F480309249042212FB041148
:10084000C1F8C0018F48042111FB0400D0F8C00199
:1008500040F480008B4912FB0411C1F8C00100BFB5
:100860008848042101FB0400D0F8C00110F4803F47
:10087000F6D144F08000FFF749FF1AE081480421D7
:1008800001FB0400D0F8C00120F001007D490422E2
:1008900002FB0411C1F8C0017A48042101FB0400E5
:1008A000D0F8C00140F04000764902FB0411C1F8C5
:1008B000C00110BD7047F0B504460E4600277548CC
:1008C000006810F0010F4FD0002C4DD1012071496C
:1008D000086000BF6F48006810F0010FFAD100BF38
:1008E0006948806A30606848C06A706008276A4852
:1008F000006840F400506349C1F840016648006850
:1009000010F4005FECD06448006820F40050C1F897
:1009100040014FF0010000FA04F004F110014FF023
:10092000010202FA01F240EA02005849086000BFE1
:1009300004F110004FF0010101FA00F001FA04F196
:1009400040EA0100514909680842F1D100BF51480D
:10095000006810F0010FFAD14D4A02EB0410416813
:100960002046FFF756FC2EE06000494951F8300060
:10097000A0B101EB04104068484A02EB84114968B9
:10098000C1F30E41471A002506E06000404951F8C6
:100990003000405D70556D1CBD42F6D30120A04073
:1009A0003F4908604FF0010000FA04F03D49096832
:1009B00021EA00013B480160354A02EB041041681E
:1009C0002046FFF726FC3846F0BDF0B504460F463A
:1009D000154604F07F04002608E0B85D012101EB14
:1009E00044012B4A52F831108855761CAE42F4D39C
:1009F00044F080002946FFF70CFC2846F0BD2A4849
:100A00000068C0F3CB00704770B5284800681D49E6
:100A1000D1F8481100EA0105214806681948C0F8D4
:100A2000445115F0400F09D0FFF767FC0AF062FB54
:100A30001F48006810B11E480068804715F4807F89
:100A400007D0FFF74CFD1B48006810B1194800683B
:100A5000804715F0800F38D01748006870B3002425
:100A60000DE00120A04014490968084206D0084A58
:100A700002EB041041682046FFF7CBFB641C022CFC
:100A8000EFD322E00060004000100810B461004085
:100A900080110810AC610040406100400011081056
:100AA000BC610040140008104C61004044610040EB
:100AB00038B1001A3CB1001A10000810FFE7504886
:100AC000006810B14E480068804715F0040F10D040
:100AD0004C480068C0F38160022802D101204A49D5
:100AE0000870FFF7FDFC4948006810B147480068EE
:100AF000804715F0010F54D04548006830B1454893
:100B0000006818B1434801680220884716F47C1F2A
:100B100019D0002415E00120A040C6F30541084289
:100B20000ED004F11000012181403B48016039489A
:100B300050F8240020B1374850F824100820884786
:100B4000641C022CE7D316F03F0F2AD0002426E0C5
:100B50003249096886EA010030400121A14008427B
:100B60001CD00120A0402D49096808432B4908608A
:100B7000284850F8240028B1264850F824100420B2
:100B800088470BE00120A04025490968084205D0AC
:100B90001B48006810B11A4800688047641C022C8A
:100BA000D6D315F0020F29D0002425E00120A04063
:100BB00030420BD01B48006840B11B4A02EB841145
:100BC000097901F0E80017490968884704F1100025
:100BD000012101FA00F030420DD01248006850B1F6
:100BE00001EB4401104A02EB4111097901F0E800E0
:100BF0000C4909688847641C022CD7D370BD0000DB
:100C000048B1001A84610040A701081040B1001AE1
:100C1000AC61004050B1001ABC61004014000810E3
:100C2000100008104CB1001A00110810F0B5074D63
:100C3000D618C7014FF0040C0CFB0174E71704EB46
:100C40009777BF1045F82760F0BD000000600840AE
:100C500010B50146262903DB002901DC042010BD64
:100C600001EB8100F84C04EB400000792D2830D0D6
:100C700001EB810004EB40000079F44C34F91000E2
:100C8000F34C0059C0F3036301EB8100EE4C04EB1D
:100C900040000079ED4C34F91000ED4C005D10F08F
:100CA000010F01D00020DAE701EB8100E64C04EBF4
:100CB00040004088E64C2044426801EB8100E24C51
:100CC00004EB40004088A0B312F0010F32D10020A5
:100CD000C5E701EB8100DC4C14F81000DB4C34F963
:100CE0001000DB4C005D10F0010F01D00020B6E7D2
:100CF00001EB8100D44C14F81000D44C34F91000EE
:100D0000D34C0059C0F3036301EB8100CE4C04EBDC
:100D100040004088CE4C2044426801EB8100CA4C20
:100D200004EB4000408820B112F0010F02D10020F6
:100D300095E7FFE7C74850F8230090E7F0B5C648AD
:100D4000406810F0020F0BD0C348406800F0080064
:100D500090F0080004D04FF40040BE49086002E063
:100D60000020BC490860BA48406C00F0020090F0D6
:100D7000020014D0B648006C10F0010F0FD0B44838
:100D8000406CC0F30366B34850F82600B049496C84
:100D9000C1F30741491C4843AE49486202E00020C4
:100DA000AC4948620C2420E0A84830F91450A84807
:100DB000285C00F0020090F0020011D0A4482858EE
:100DC000C0F30366A248285AC0F387077F1CA148D6
:100DD00050F82600B0FBF7F09E4941F8240003E0EC
:100DE00000209C4941F82400641C102CDCD91120FF
:100DF000FFF72EFF99490860F0BD30B50346102B70
:100E000001DD032030BD07292FDB25292DDCC3EBB5
:100E1000031000EB4000924D2844405C18B38B480F
:100E200030F91320501C0BD0102909DC072907DBEF
:100E300087481058C0F30360884201D10120E1E7E0
:100E4000824830F91120501C01D10220DAE7804895
:100E5000145824F07064C01440EA036004437C48D2
:100E600014500020CEE70320CCE70220CAE72DE98A
:100E7000F04104460F46F4B95FB17748406820F06E
:100E80000C00754948600846406840F0030048601F
:100E90000AE07148406820F003006F494860084646
:100EA000406840F008004860002600E0761C6D486D
:100EB0008642FBDB61E0022C06D1032310220021D5
:100EC0000C20FFF7B3FE58E0032C06D100231022BC
:100ED00013210120FFF7AAFE4FE0042C4DD0052C72
:100EE0004BD0062C14D137B95948806940F0010025
:100EF0005749886105E05648806920F0010054494F
:100F00008861002600E0761C56488642FBDB34E010
:100F10004E4830F91450681C02D10220BDE8F0811F
:100F200037B94B48285840F001004949685024E03F
:100F30004748285820F0010045496850072C05D142
:100F400000BF4348C06910F0010FFAD0082C05D14A
:100F500000BF3F48C06A10F0010FFAD0092C0CD135
:100F600000BF3B48006C10F0010FFAD03848006C0D
:100F700010F0010F01D100BFFEE70020CEE7F0B571
:100F8000024600240025002301263148406CC0F3AE
:100F90000367304850F827105143541E2C48406CCA
:100FA000DFF8C4C000EA0C00DFF8A4C0CCF84400AD
:100FB0002E4881421AD201E05B1C76007000484343
:100FC000DFF8A8C06045F7D3200440EA053040EAC6
:100FD000032040F04000DFF878C0DCF844C040EA6D
:100FE0000C00DFF86CC0CCF8440016E020488142C9
:100FF00011D2200440EA053040EA032040F0C0004E
:10100000DFF84CC0DCF844C040EA0C00DFF840C018
:10101000CCF8440001E00420F0BD0020FCE70146CC
:101020001448814206D20A48806920F00400084A28
:10103000906125E01048814220D20548806940F047
:101040000400034A90611BE0CCB5001A74B2001A88
:10105000000005401800081000300440000008108F
:10106000CEB2001A40420F003DCC00FF005F4C0999
:1010700000D01213C0E1E40040787D0105207047E4
:10108000FE4881610020FAE710B5FD48FFF7C7FF71
:1010900001210620FFF7EBFE09210620FFF7ADFE38
:1010A0001020FFF76CFF01210920FFF7E0FE15215A
:1010B0000920FFF7A2FEFFF741FE002010BD10B58A
:1010C0000446EF48FFF7ABFF01210620FFF7CFFEF4
:1010D00009210620FFF791FE2046FFF750FF01216E
:1010E0000920FFF7C4FE15210920FFF786FEFFF750
:1010F00025FE002010BD0146A1F1110014284DD29B
:10110000DFE800F04B1E4C2319144C4C4C0F0A4CDA
:101110004C46413C37322D28DA48406800F0010047
:101120007047D8484068C0F34000F9E7D5484068A8
:10113000C0F38000F4E7D3484068C0F3C000EFE795
:10114000D0484068C0F3C010EAE7CE484068C0F31A
:101150000020E5E7CC484068C0F34000E0E7CA481B
:101160004068C0F38000DBE7C7484068C0F3C000B8
:10117000D6E7C5484068C0F30010D1E7C2484068D0
:10118000C0F34010CCE7C0484068C0F38010C7E708
:10119000BD484068C0F3C010C2E700E000BF00BF18
:1011A0000020BDE770B504460E460025262C03DB63
:1011B000002C01DC042070BD002E7DD104EB8400E6
:1011C000B24901EB4000408890B304EB840001EB8E
:1011D00040004088AE490844007910F0010F27D044
:1011E00004EB8400A94901EB40004088A84940581D
:1011F00020F0010004EB8401A44A02EB410149887C
:10120000A34A885004EB8400A04901EB40004088C9
:1012100011460844456808E004EB84009B4901EB53
:10122000400040889A490844456815F0010FF3D101
:1012300004EB8400954911F810002D280FD004EB21
:101240008401924A12F81100FFF755FF38B904EBF8
:1012500084018E4A12F811000021FFF708FE04EB0A
:1012600084008A4901EB4000408889490844456868
:1012700004EB8400854901EB4000C08858B315F0A9
:10128000010F28D004EB840001EB4000C0888049A6
:10129000405820F0010004EB84017C4A02EB41013C
:1012A000C9887B4A885004EB8400784901EB4000F0
:1012B00040881146084400E029E0456808E004EB56
:1012C0008400724901EB4000408871490844456838
:1012D00015F0010FF3D004EB84006C4901EB4000E2
:1012E00000792D2812D004EB8401684A02EB4101F9
:1012F0000879FFF700FF002808D104EB8401634A56
:1013000002EB410108790021FFF7B1FDACE004EBED
:1013100084005E4901EB400040885D49084445680F
:1013200004EB8400594911F810002D280AD015F05B
:10133000010F07D004EB8401544A12F81100012177
:10134000FFF795FD04EB8400504901EB4000408815
:101350004F490844456804EB84004C4901EB4000C8
:10136000408848B315F0010F26D104EB840001EB4F
:10137000400040884649405840F0010004EB840199
:10138000424A02EB41014988414A885004EB8400FB
:101390003E4901EB4000408811460844456808E09A
:1013A00004EB8400394901EB400040883849084487
:1013B000456815F0010FF3D004EB8400334901EBCD
:1013C000400000792D2815D004EB840001EB40008B
:1013D0000079304931F910002D49405C10F0010FBF
:1013E00008D004EB8401294A02EB4101087901216C
:1013F000FFF73DFD04EB8400244901EB4000C08869
:1014000090B304EB840001EB4000C08820490844FD
:10141000007910F0010F27D104EB84001B4901EB88
:101420004000C0881A49405840F0010004EB840194
:10143000164A02EB4101C988154A885004EB840022
:10144000124901EB4000408811460844456808E015
:1014500004EB84000D4901EB400040880C4908442E
:10146000456815F0010FF3D004EB8400074901EB48
:101470004000007AC0B104EB84010DE018000810B0
:10148000001BB7000010054000200540CCB5001A35
:101490000000054074B2001A5C4A02EB4101087A70
:1014A0003146FFF77FFE86E6002084E610B502464F
:1014B0000C460C2A14DB102A12DC554830F91210A5
:1014C000481C01D1022010BD52480B5823F47F73F1
:1014D000601EC0B243EA80034E480B500020F2E782
:1014E0000220F0E74B48006A40F0010049490862D9
:1014F0004948886249484862494808620020704764
:1015000047481B3843490863464848634648886350
:101510004648086300BF3F48C06A10F0010FFAD088
:1015200000207047F0B504460D46164640F2FF1104
:101530004FF4000040EA04600843DFF8D8C0CCF85C
:10154000140000BF3348406910F4000FFAD10023A3
:1015500000E05B1C42F210708342FADB2D484069C8
:10156000C0F34D2212B94FF0FF30F0BDB2F5007F4D
:1015700008D328484069C0F3080040F2FF1CACEBD8
:1015800000011EE000BF491E4FF4000040EA046065
:101590000843DFF880C0CCF8140000BF1D48406944
:1015A00010F4000FFAD1002300E05B1C42F210702F
:1015B0008342FADB17484069C0F34D279742E2D0D7
:1015C000491C2A6031600020CFE7FFB505460C4674
:1015D00016461F46102D01DC102C02DD042004B03D
:1015E000F0BD01AA03A92846FFF79CFF6A4602A99D
:1015F0002046FFF797FF0099039848433060DDE9E4
:101600000101484338600020E9E70000CCB5001A2A
:1016100074B2001A0000054062202000FA7F160410
:101620001C000006D3343E020EF0030010600006DA
:1016300070B50446FB4A1C2C63D2DFE804F00E119F
:1016400014171A1D202326292C2F3235383B3E41F2
:1016500044474A4D505356595C5F0021002053E0E7
:101660000021012050E0012101204DE00021022055
:101670004AE00121022047E00021032044E001214B
:10168000032041E0002104203EE0012104203BE052
:101690000021052038E00121052035E00021062049
:1016A00032E0012106202FE0002107202CE001215B
:1016B000072029E00221072026E00021082023E05E
:1016C0000121082020E0022108201DE0002109203E
:1016D0001AE00121092017E000210A2014E001216D
:1016E0000A2011E000210B200EE000210C200BE06D
:1016F00000210D2008E000210E2005E000210F2030
:1017000002E003210F2000BF00BF46000325B540C3
:101710001368AB431360450001FA05F513682B43CA
:10172000136070BD0020C0490860C049C1F8300195
:10173000BF490860BF490860BF490860BF490860E9
:10174000BF490860BF4908604FF0FF00B749886093
:101750000861886008617047F0B5044600260027DC
:10176000B248C069227801219140C9B2084201D033
:101770000020F0BDB449206851F8205021780120A4
:101780008840C0B2A9498860217801208840C0B251
:10179000A64908610020E8602861206AA8606069A5
:1017A00008287DD2DFE800F00419365E8E8FB9BAC2
:1017B000E068286020696860606840F41030217A31
:1017C00001F0070140EA8140217A01F0070140EA77
:1017D000415040F00C40E860A2E0E06828602069D9
:1017E0006860A088C0F30B00217A01F0070140EA8D
:1017F0008140217A01F0070140EA415040F0064063
:10180000E860A069FFF714FF0646E069FFF710FFE4
:10181000074685E0E0682860206968608B49A06918
:10182000085C00F00701606861F31F30874AA16916
:10183000515C01F0070140EAC130854AA169515C61
:1018400001F0070140EA8140A169515C01F0070104
:1018500040EA415040F00940E860A069FFF7E8FE27
:1018600006465DE07B49A06951F820002860E069E8
:1018700051F8200068607549A069085C00F0070114
:10188000606861F31F30714AE169515C01F0070142
:1018900040EAC1306E4AA169515C01F0070100E0E5
:1018A0003AE040EA8140E169515C01F0070140EA19
:1018B000415040F00340E860A069FFF7B9FE0646DA
:1018C00000272DE02CE0E0682860206968605F490F
:1018D000E069085C00F00701606861F31F305B4A53
:1018E000E169515C01F0070140EAC130584AE16901
:1018F000515C01F0070140EA8140E169515C01F06F
:10190000070140EA415040F00640E860A069FFF757
:101910008FFE0646002703E000BF00BF002028E737
:1019200000BF01204149086300BF4048006B10F030
:10193000010FFAD0207D00F007004FF4404141EA4A
:10194000C02006F01F0140EA410007F01F0140EAF5
:101950008110286101200CE7F0B50446002600271D
:101960003949206851F82050217801208840C0B2C0
:101970002E498860217801208840C0B22B49086137
:10198000206AA860E068286020696860A088C0F3C9
:101990000B00217A01F0070140EA8140217A01F031
:1019A000070140EA415040F00640E860A069FFF7B7
:1019B0003FFE0646E069FFF73BFE074601201B4954
:1019C0000863207D00F007004FF4404141EAC02049
:1019D00006F01F0140EA410007F01F0140EA8110B4
:1019E00028610120F0BD0246174B53F8220001295F
:1019F00004D1036943F00103036103E0036923F0A9
:101A000001030361704770B504460D464CB1012CCB
:101A100007D0022C05D0032C03D0042C01D0052CB8
:101A20001AD11EE01C31044010210040002000406B
:101A3000502100407021004090210040B021004022
:101A4000D0210040F02100405C000810C4B7001A0B
:101A5000E0B7001A54B7001A40F245213AA005F049
:101A6000A0FC072D00DC04E040F2462136A005F082
:101A700098FC052C3BD2DFE804F0030E19242F005C
:101A8000394800680121A940C9B2084201D00120AB
:101A900070BD0020FCE7344840680121A940C9B26C
:101AA000084201D00120F3E70020F1E72E48C0688A
:101AB0000121A940C9B2084201D00120E8E7002075
:101AC000E6E7294881690120A840C0B2014201D05F
:101AD0000120DDE70020DBE7234841690120A84021
:101AE000C0B2014201D00120D2E70020D0E71E4859
:101AF000C1690120A840C0B2014201D00120C7E75E
:101B00000020C5E770B504460D460CB1012C00D18C
:101B100004E040F26F210CA005F043FC072D00DC2F
:101B200004E04FF41C7108A005F03BFC2CB9012027
:101B3000A840C0B20C49886004E00120A840C0B2AF
:101B40000949086170BD0000447269766572735C72
:101B5000736F757263655C6C7063343378785F673C
:101B600070646D612E6300000020004070B5054672
:101B700035B1012D09D0022D0CD0032D14D10EE06A
:101B80001C20FFF765F804460EE01D20FFF760F803
:101B9000044609E01E20FFF75BF8044604E01F201E
:101BA000FFF756F8044600BF00BF204670BD2DE980
:101BB000F04781460C464846FFF7D8FF0026054609
:101BC00000232946A1FB047C06FB04C205FB03217C
:101BD000FE4A384607F022FE05462846BDE8F08753
:101BE00001464FF0FF30FA4A914201D100200DE04A
:101BF000F84A914201D1012008E0F74A914201D10F
:101C0000022003E0F54A914200D10320704770B5ED
:101C100005460C46EE48854208D0EE48854205D080
:101C2000ED48854202D0ED48854200D103E0AB216A
:101C3000EBA005F0B6FB6CB1012C0BD0022C09D047
:101C4000032C07D0042C05D0052C03D0062C01D082
:101C5000072C00D103E0AC21E1A005F0A2FB28682D
:101C60000121A1400840C6B20EB1012070BD002084
:101C7000FCE770B505460C46D548854208D0D548E6
:101C8000854205D0D448854202D0D448854200D14F
:101C900003E0C921D2A005F084FB6CB1012C0BD06C
:101CA000022C09D0032C07D0042C05D0052C03D01E
:101CB000062C01D0072C00D103E0CA21C8A005F0F2
:101CC00070FB2868211D01228A401040C6B20EB167
:101CD000012070BD0020FCE770B505460C46BC48ED
:101CE000854208D0BB48854205D0BB48854202D01A
:101CF000BA48854200D103E0E221B9A005F051FBCA
:101D00006CB1012C0BD0022C09D0032C07D0042C71
:101D100005D0052C03D0062C01D0072C00D103E000
:101D2000E321AFA005F03DFB0120A040286070BD7D
:101D300070B505460C46A648854208D0A5488542A0
:101D400005D0A548854202D0A448854200D103E0D1
:101D5000F921A3A005F025FB6CB1012C0BD0022CBE
:101D600009D0032C07D0042C05D0052C03D0062C59
:101D700001D0072C00D103E0FA2199A005F011FB56
:101D8000201D01218140296070BD20B90A46012330
:101D90001370536003E00A460023537000BF70477E
:101DA0002DE9F04704460D4616468948844208D07E
:101DB0008848844205D08848844202D087488442BB
:101DC00000D104E04FF4987185A005F0EAFA1DB146
:101DD000012D01D000D000D104E040F2311180A0EB
:101DE00005F0DFFA7A48844206D07A48844203D06C
:101DF0007948844200D000BFA06A20F00300A062AE
:101E0000A06AA0620020A0602061E060606840F0ED
:101E100002006060606820F00200606085B93746AB
:101E2000387818B97868401EE06017E02046FFF760
:101E3000D7FE81467968FFF7BAFE401EE0600DE0EC
:101E4000B046A06A20F00C00A062464698F8010057
:101E5000012803D1A06A40F00400A0624FF0FF30D7
:101E60002060BDE8F08710B504465948844208D088
:101E70005848844205D05848844202D0574884428A
:101E800000D104E040F2731155A005F08AFA002059
:101E9000606010BD70B504460D464D48844208D0C0
:101EA0004C48844205D04C48844202D04B4884427E
:101EB00000D104E040F2871149A005F072FA002039
:101EC000A060012D04D1606840F00100606003E073
:101ED000606820F00100606070BD10B504463C48A9
:101EE000844208D03B48844205D03B48844202D01B
:101EF0003A48844200D104E04FF4D07138A005F094
:101F000050FA606840F002006060606820F00200F3
:101F1000606010BD70B504460D462D48844208D05F
:101F20002C48844205D02C48844202D02B4884425D
:101F300000D104E040F2BF1129A005F032FA28795F
:101F400040B12879012805D02879022802D02879C3
:101F5000032800D104E04FF4E07121A005F021FA3C
:101F6000287830B1012807D0022808D003280CD1E6
:101F700008E0A868A0610AE0A968E16107E0A96833
:101F8000216204E0A968616201E000BFFEE700BFD2
:101F90006069297801EB4102072191408843606123
:101FA000687838B16069297801EB410201219140DC
:101FB00008436061E87840B16069297801EB41012C
:101FC000491C01228A401043606119E000E1F505D7
:101FD000004008400050084000300C4000400C40D9
:101FE000447269766572735C736F757263655C6C5D
:101FF0007063343378785F74696D65722E630000A6
:10200000A87840B16069297801EB4101891C01225F
:102010008A4010436061E06B2978042202EB4102A0
:10202000032191408843E063287900F00300297878
:10203000042202EB41018840E16B0843E06370BD7C
:1020400070B504460E4615466548844208D065487A
:10205000844205D06448844202D06448844200D15E
:1020600005E040F2F511AFF2880005F09AF936B1BB
:10207000012E06D0022E06D0032E08D105E0A56160
:1020800007E0E56105E0256203E0656201E000BF6D
:10209000FEE700BF70BD70B504460D46504884424F
:1020A00008D05048844205D04F48844202D04F485F
:1020B000844200D105E040F21721AFF2DC0005F0C8
:1020C00070F9A06A297801EB410207219140884309
:1020D000A062687838B1A06A297801EB4102012139
:1020E00091400843A062A87840B1A06A297801EB2A
:1020F0004101491C01228A401043A062E87840B1A6
:10210000A06A297801EB4101891C01228A40104311
:10211000A06270BD70B504460D463148844208D0B7
:102120003048844205D03048844202D02F4884424F
:1021300000D105E04FF40D71AFF25C1005F031F9FC
:102140002DB1012D03D0022D01D0032D00D105E0CA
:1021500040F23521AFF2781005F023F935B1012DA9
:1021600006D0022D06D0032D08D105E0E06A70BD2F
:10217000206BFCE7606BFAE7A06BF8E70020F6E75E
:102180003EB504464FF0FF301549086000208DF839
:10219000000001208DF801008DF803008DF8020089
:1021A00000208DF80400029469460D48FFF7B2FE46
:1021B00001210B48FFF76EFE00BF0948006810F0D0
:1021C000010FFAD00648FFF788FE3EBD10B5044661
:1021D0004FF47A7104FB01F0FFF7D2FF10BD00004D
:1021E000004008400050084000300C4000400C40C7
:1021F00010B53AB1294B53F820300B43274C44F823
:10220000203006E0254B53F820308B43234C44F814
:10221000203010BD224A42F820107047204A8032F8
:1022200042F82010704701461E4850F821007047C0
:1022300070B504460D461646324629462046FFF73D
:10224000D7FF70BD10B503460C4621461846FFF770
:10225000E1FF10BD10B503460C4621461846FFF7B6
:10226000DDFF10BD00B502461046FFF7DCFF00BDE4
:1022700010B54AB1094B803353F820300B43074C5B
:10228000803444F8203008E0044B803353F8203089
:102290008B43024C803444F8203010BD00600F4066
:1022A00000620F4000610F402DE9F04105460F46E6
:1022B00014469846069E022D02D0032D08D103E055
:1022C000204605F0ECFA03E020780349087000BFCF
:1022D00000BFBDE8F08100007C0008102DE9F04748
:1022E00004460E461746D348844202D0D248844260
:1022F00000D103E04821D1A005F053F81EB1D74822
:10230000864200D803E04921CCA005F04AF800201D
:1023100020604FF40018C748844204D10020FEF723
:1023200097FC054606E0C448844203D10120FEF72D
:102330008FFC0546781C06FB00F909EB45004FEAC7
:102340004901B0FBF1F0451E2802C7F10A0140EA3D
:10235000414040EA0808C4F80080BDE8F08710B5A5
:102360000446B448844202D0B348844200D103E01A
:102370006C21B2A005F015F8206810F0E06F03D0D2
:10238000206820F0E0602060206820F0FF002060DE
:10239000206820F40010206010BD70B505460C4682
:1023A000A448854202D0A448854200D103E0992187
:1023B000A2A004F0F6FF5CB1012C09D0022C07D0DA
:1023C000032C05D0042C03D0052C01D0062C00D101
:1023D00003E09A2199A004F0E4FF286820F0E0606F
:1023E0002860286840EA0460286070BD70B5044623
:1023F0000D469048844202D08F48844200D103E0C9
:10240000AB218EA004F0CDFF206820F48030206046
:102410001DB1206840F48030206070BD70B5044666
:102420000D468448844202D08348844200D103E0B0
:10243000BD2182A004F0B5FF206820F400102060C8
:102440001DB1206840F40010206070BD70B50446D6
:102450000D467848844202D07748844200D103E098
:10246000CF2176A004F09DFF0DB1012D00D103E036
:10247000D02172A004F095FF206820F00060206059
:102480001DB1206840F00060206070BD70B5054649
:102490000C4616466748854202D06748854200D1FF
:1024A00003E0E82165A004F07CFF7CB1012C0DD095
:1024B000022C0BD0032C09D0042C07D0052C05D0FE
:1024C000062C03D0072C01D0082C00D103E0E92111
:1024D0005AA004F066FFE8680121A1408843E86043
:1024E00026B1E8680121A1400843E86070BD70B5DD
:1024F00004460D4616464F48844202D04E48844258
:1025000000D103E0FC214DA004F04BFF05B100BF5A
:1025100000BF012E05D120680121A9400843206099
:102520000CE0206810F0E06F03D0206820F0E0603D
:10253000206020680121A9408843206070BD70B5EB
:1025400004460D463B48844202D03B48844200D1B9
:1025500004E04FF4897139A004F023FF05B100BFF6
:1025600000BF04F1100050F82560C6F3891070BD5B
:102570002DE9F04104460F4615462E48844202D00C
:102580002D48844200D104E04FF494712BA004F054
:1025900008FF07B100BF00BF0DB1012D00D104E05D
:1025A0004FF4957125A004F0FCFE04F1100050F8E2
:1025B000276015B106F0004601E006F0804616B12E
:1025C0000120BDE8F0810020FBE710B50446194862
:1025D000844202D01848844200D104E040F2411104
:1025E00016A004F0DEFE606810BD70B506460C460D
:1025F0001048864202D01048864200D104E04FF4D1
:10260000A9710EA004F0CDFE0CB1012C00D104E0A4
:1026100040F2531109A004F0C4FE756814B105F02E
:10262000004501E005F080450DB1012070BD00209E
:10263000FCE7000000300E4000400E404472697616
:102640006572735C736F757263655C6C7063343351
:1026500078785F6164632E6300000000400D030022
:102660002DE9F04F8BB004468946174600200A90AA
:102670000997F848844206D10FB1099703E020205A
:10268000FEF7E6FA0990F448844206D10FB10997A3
:1026900003E02120FEF7DCFA0990F048844206D1DD
:1026A0000FB1099703E02220FEF7D2FA0990EC4817
:1026B000844206D10FB1099703E02320FEF7C8FA40
:1026C00009904FF0FF3B00200790069000252E4612
:1026D0004FF001084EE00020089041E00898404487
:1026E00000FB09FC00210907099841EA10110007C5
:1026F0000022A0FB083E01FB08E100FB021062463D
:10270000CDE900300023DDE9000107F087F8CDE9CD
:10271000040104980390DDF814A00398B0F1004F71
:1027200004D90398404203900AF1010ABAF1000F5C
:1027300002D0BAF5803F00D90FE0039858450BD27C
:10274000DDF80CB00026554608980790CDF81880A3
:10275000BBF1000F00D106E000BF0898401C0890B4
:1027600008984045BAD300BFBBF1000F00D104E088
:1027700008F10108B8F10F0FADD900BF002185EABB
:1027800001007140084302D10BB0BDE8F08F0998F9
:102790000009069900FB01FC08460799084400213E
:1027A000A0FB052301FB053100FB06100346CDE924
:1027B00000206046002107F031F802900298814520
:1027C00003D90298A9EB000B02E00298A0EB090BD9
:1027D00064200BFB00F0B0FBF9FBBBF1030F35D21B
:1027E0009D48844218D1E06840F08000E060280AEB
:1027F00040EA0660C0B26060E8B22060E06800F0C5
:102800007F00E060F021069801EA0010079901F0CE
:102810000F010843A06217E0E06840F08000E0602C
:10282000280A40EA0660C0B26060E8B22060E06852
:1028300000F07F00E060F021069801EA001007999F
:1028400001F00F010843A06201200A900A989BE75B
:1028500070B504460D467F48844208D07E488442C5
:1028600005D07E48844202D07D48844200D103E0F6
:10287000E5217CA004F095FD687940B168790128D4
:1028800005D06879022802D06879032800D103E0D6
:10289000E62174A004F085FDA87910B1A87901287B
:1028A00000D103E0E7216FA004F07BFD287958B147
:1028B0002879012808D02879022805D0287903280A
:1028C00002D02879042800D103E0E82165A004F0B3
:1028D00068FD6048844203D121210620FEF78DFA6D
:1028E0005D48844203D122210920FEF786FA5B4825
:1028F000844203D123210620FEF77FFA5848844200
:1029000003D124210620FEF778FA534884421CD1D3
:102910000720A0600020A06000E02668606910F039
:10292000010FFAD18020206300BF606910F0200FF2
:10293000FBD0002020636060E06020622061E064E2
:1029400060652065A66966691CE00720A06000201C
:10295000A06000E02668606910F0010FFAD1012044
:10296000E06500BF606910F0200FFBD00020E0653B
:102970006060E06020622064A064A065E06460653F
:10298000206566693648844201D100206062204695
:10299000AA682968FFF764FE2F48844203D1E068E3
:1029A00000F0C00602E0E06800F0C006687930B1CF
:1029B000012806D0022807D0032808D108E000BF6C
:1029C00009E046F0010606E046F0020603E000BF1B
:1029D00046F0030600BF00BF2879C0B146F00806E4
:1029E0002879012806D0022806D0032807D0042819
:1029F0000BD107E000BF09E046F0100606E046F004
:102A0000200603E046F0300600E000BF00BFA879D2
:102A100028B1012802D146F0040601E000BF00BF42
:102A200000BF0D48844202D1F0B2E06001E0F0B294
:102A3000E06070BD70B504460D460648844208D07B
:102A40000548844205D00548844202D004488442A7
:102A500018D11DE0001008400020084000100C4074
:102A600000200C40447269766572735C736F7572F6
:102A700063655C6C7063343378785F756172742E53
:102A80006300000040F2F331AFF2280004F089FC4B
:102A90000DB1012D00D105E04FF47D71AFF23C0086
:102AA00004F07FFC012D0CD1F748844204D1206B47
:102AB00040F0800020630EE0E06D40F00100E06532
:102AC00009E0F148844203D1206B0020206302E03A
:102AD000E06D0020E06570BD10B50446EB4884420F
:102AE00008D0E948844205D0E948844202D0E94848
:102AF000844200D105E040F2C111AFF2980004F029
:102B000050FC00212046FFF795FF10BD4FF41651F1
:102B10000160032141710021017181718160704761
:102B200070B504460D46D948844208D0D648844240
:102B300005D0D748844202D0D648844200D105E06F
:102B400040F20621AFF2E40004F02BFCCE488442B0
:102B500002D1E8B2206001E0E8B2206070BD10B59B
:102B60000446CA48844208D0C748844205D0C848B1
:102B7000844202D0C748844200D105E040F21F21C0
:102B8000AFF2201004F00DFCBF48844202D120684F
:102B9000C0B210BD2068C0B2FBE72DE9FF5F8046E0
:102BA0008A46934657465C460398012824D100255F
:102BB0001FE04FF0FF3905E0B9F1000F00D106E04A
:102BC000A9F10109D8F8140010F0200FF4D000BFCB
:102BD000B9F1000F00D10EE0102607E017F8011B35
:102BE0004046FFF79DFF761E641E6D1C0EB1002C43
:102BF000F4D1002CDDD117E0002512E0D8F8140044
:102C000010F0200F00D10EE0102607E017F8011B8E
:102C10004046FFF785FF641E761E6D1C0EB1002C2A
:102C2000F4D1002CEAD100BF284604B0BDE8F09FE3
:102C30002DE9F05F0746894692469B464E4655462B
:102C4000BBF1010F1DD1002418E04FF0FF3805E063
:102C5000B8F1000F00D105E0A8F10108786910F083
:102C6000010FF5D000BFB8F1000F00D108E03846E1
:102C7000FFF775FF06F8010B6D1E641C002DE4D1F3
:102C800010E000240BE0786910F0010F00D108E09B
:102C90003846FFF764FF06F8010B641C6D1E002D1B
:102CA000F1D100BF2046BDE8F09F10B5044677483B
:102CB000844208D07448844205D07548844202D0CA
:102CC0007448844200D105E040F2B321AFF26C2099
:102CD00004F067FB6C48844204D1E06840F0400097
:102CE000E06003E0E06840F04000E06010BD2DE9E6
:102CF000F04104460D46164600276448844208D039
:102D00006148844205D06248844202D061488442CE
:102D100000D105E040F2DA21AFF2B82004F041FB27
:102D20000EB1012E00D105E040F2DB21AFF2CC2044
:102D300004F037FB072D15D2DFE805F00406080A7A
:102D40000C0E110001270DE002270BE0042709E01B
:102D5000082707E0802705E04FF4807702E04FF472
:102D6000007700BF00BF4848844214D15DB1012DF7
:102D700009D0022D07D0052D05D0062D03D0032D37
:102D800001D0042D00D116E040F2F721AFF22C3033
:102D900004F007FB0FE03DB1012D05D0022D03D05B
:102DA000052D01D0062D00D105E040F2FB21AFF248
:102DB0004C3004F0F6FA012E0AD13348844203D194
:102DC00060683843606013E06068384360600FE01B
:102DD0002D48844206D1606840F28F31B9430840E3
:102DE000606005E0606840F20731B9430840606008
:102DF000BDE8F08110B504462448844208D022483A
:102E0000844205D02248844202D02248844200D124
:102E100005E040F22931AFF2B43004F0C2FA1A48AA
:102E2000844202D14069C0B210BD6069C0B2FBE704
:102E30000146486910F0400F01D000207047012082
:102E4000FCE770B506460C4600251048864208D0BF
:102E50000D48864205D00E48864202D00D48864273
:102E600000D105E040F25731AFF2084004F099FA82
:102E7000E07840B1E078012805D0E078022802D05F
:102E8000E078032808D10DE0002008400010084039
:102E900000100C4000200C404FF45671AFF23C4043
:102EA00004F07FFAA07810B1A078012800D105E0E5
:102EB00040F25931AFF2544004F073FA207810B167
:102EC0002078012800D105E040F25A31AFF26C4081
:102ED00004F067FA607810B16078012800D105E04D
:102EE00040F25B31AFF2844004F05BFA45F001053B
:102EF000E07830B1012806D0022807D0032808D195
:102F000008E000BF09E045F0400506E045F0800517
:102F100003E000BF45F0C00500BF00BF6078012896
:102F200001D145F004052078012801D145F00205C2
:102F3000A078012801D145F00805FE48864203D15A
:102F400005F0CF00B06002E005F0CF00B06070BDCA
:102F500000218170C17001210170417070472DE91D
:102F6000F04104460F461546F348844208D0F14824
:102F7000844205D0F148844202D0F148844200D115
:102F800005E040F2B131AFF2245004F00AFA0DB17D
:102F9000012D00D105E040F2B231AFF2385004F01B
:102FA00000FA0026012D09D13878012801D146F018
:102FB00002067878012801D146F00406DD488442F3
:102FC00015D1012D10D1E06840F08000E0600020B4
:102FD00020606060E06820F08000E0601020A06267
:102FE00046F00100206217E00020206214E0012D6D
:102FF00010D1E06840F08000E06000202060606058
:10300000E06820F08000E0601020A06246F001003F
:10301000206201E000202062BDE8F08170B5044626
:103020000D46C748844200D105E040F21D41AFF291
:10303000CC5004F0B6F90DB1012D00D105E040F2FD
:103040001E41AFF2E05004F0ACF9012D04D1606AEA
:1030500040F00200606204E01DB9606A00F03D00CB
:10306000606270BD70B504460D46B548844200D11B
:1030700005E040F23541AFF2146004F092F90DB171
:10308000012D00D105E040F23641AFF2286004F096
:1030900088F9012D04D1606A40F00100606203E00C
:1030A000606A00F03E00606270BD2DE9F0410546A7
:1030B0000C46A348854200D105E040F25541AFF2ED
:1030C0005C6004F06EF96CB1012C0BD0022C09D0BD
:1030D000032C07D0042C05D0052C03D0062C01D0DE
:1030E000072C00D105E040F25641AFF2886004F0B1
:1030F00058F96007870E686A20F0380647F0040028
:10310000064306F03F006862BDE8F0812DE9F0411A
:1031100004460D46164600278648844200D105E045
:1031200040F27541AFF2C46004F03BF90DB1012DDE
:1031300000D105E040F27641AFF2D86004F031F9F9
:103140000EB1012E00D105E040F27741AFF2EC6004
:1031500004F027F915B1012D04D101E0012702E0A7
:10316000022700E000BF00BF012E03D120693843D1
:10317000206104E02069F321B94308402061BDE8E3
:10318000F0812DE9F04104460D46164600276948B6
:10319000844200D105E040F29D41AFF2387004F066
:1031A00000F91DB1012D01D0022D00D105E040F242
:1031B0009E41AFF2507004F0F4F80EB1012E00D130
:1031C00005E040F29F41AFF2647004F0EAF825B1E7
:1031D000012D04D0022D06D103E0102704E0402782
:1031E00002E0802700E000BF00BF012E03D120696C
:1031F0003843206104E02069F321B943084020618D
:10320000BDE8F08110B504464A48844200D105E08B
:103210004FF49961AFF2B47004F0C3F8A069C0B282
:1032200010BD70B505460C46A07810B1A0780128F5
:1032300000D105E04FF49C61AFF2D87004F0B1F812
:10324000E07810B1E078012800D105E040F2E141DA
:10325000AFF2F07004F0A5F8E079FF2800DA05E09D
:1032600040F2E241AFF6040004F09BF8607910B13F
:103270006079012800D105E040F2E341AFF61C007F
:1032800004F08FF8207928B12079012802D0207924
:10329000022800D105E040F2E441AFF6380004F026
:1032A00080F8A079FF2800DA05E040F2E541AFF6AA
:1032B0004C0004F076F8207810B12078012800D175
:1032C00005E040F2E641AFF6640004F06AF8607889
:1032D00010B16078012800D105E040F2E741AFF677
:1032E0007C0004F05EF80026E078012813D146F057
:1032F00010066079012801D146F0200620790128C6
:1033000001D146F008060B48854202D1E079686594
:1033100001E0E07968652078012801D146F00106D6
:10332000A078012812D146F00406024885420BD14C
:10333000A07907E0002008400010084000100C4071
:1033400000200C40286501E0A0792865607808B964
:1033500046F002064C48854203D106F03F00E8647F
:1033600002E006F03F00E8644748854204D1E8687F
:1033700040F03800E86003E0E86840F03800E860BA
:1033800070BD414A90420BD1012904D1C26C22F098
:103390000202C2640FE0C26C42F00202C2640AE0A0
:1033A000012904D1C26C22F00202C26403E0C26CA3
:1033B00042F00202C26470472DE9F0470446894694
:1033C000924698463048844223D1B8F1000F13D07A
:1033D000E068C5B22F4627F01007E7600123524688
:1033E00049462046FFF7D9FB064600BF606910F04A
:1033F000400FFBD0E5602FE00123524649462046AE
:10340000FFF7CBFB064600BF606910F0400FFBD012
:1034100022E0B8F1000F13D0E068C5B22F4627F0C4
:103420001007E7600123524649462046FFF7B5FBE7
:10343000064600BF606910F0400FFBD0E5600BE06E
:103440000123524649462046FFF7A7FB064600BF28
:10345000606910F0400FFBD03046BDE8F08713B52F
:10346000044601231A4601A92046FFF7A5FF1CBD0B
:1034700070B504460D4616460023324629462046BE
:10348000FFF79AFF70BD000000200840014601EBE5
:10349000810252000323B2FBF3F0FF2801D2FF2088
:1034A00004E0B0F1807F01D36FF07F40544A506058
:1034B0007047002052490860FF20486000204861A2
:1034C0006FF07F408861704710B504464C48006833
:1034D00010F0100F10D000BF4948C0684849496932
:1034E000C1F30901884207D24548C0684449896947
:1034F00021F07F418842EFD32046FFF7C7FF10BD80
:10350000AA203F498860552088607047014601EB3A
:10351000810252000323B2FBF3F0FF2801D8FF2001
:1035200004E040F2FF32904200D31046344A50612A
:103530007047014601EB810252000323B2FBF3F016
:10354000FF2801D8FF2004E06FF07F42904200D3B3
:1035500010462B4A906170470FB50198FFF796FF10
:103560009DF8000030B12648006840F00200244970
:10357000086005E02248006820F002002049086049
:103580009DF8010030B11E48006840F010001C4951
:10359000086005E01A48006820F01000184908602B
:1035A0000FBD00B51648006840F0010014490860DE
:1035B000FFF7A6FF00BD014621B91148006800F0E1
:1035C00008007047012904D10D48006800F004008C
:1035D000F7E70020F5E730B90949096841F008012B
:1035E000074A116007E0012805D10549096821F063
:1035F0000401034A116070470148C0687047000029
:103600000000084010B5044600203A4908803A49B5
:1036100008603A49086040F2012094FBF0F100FB99
:103620001140374908804FF40051364806F040F900
:1036300010BD3048008808B9012070470020FCE721
:1036400060213148008848B100BF0800A1F10101A4
:10365000FBD100BF2C4800880028FBD101202A4A5A
:10366000108024480088264A1288904203D1002006
:10367000254A108070471F480088401C1D4A108052
:103680001D480068401C1E4A128890FBF2F302FBA2
:103690001300194A106000201B4A10800120E9E73E
:1036A0001A480088002806DD19481A4A126800EBFB
:1036B000C201084670470020FCE714480088002833
:1036C00016DD1348134A126800EBC2011148006866
:1036D000401C114A128890FBF2F302FB13000D4AC2
:1036E00010600A480088401E084A1080084670474B
:1036F0000020FCE700730020087300200C730020FA
:10370000047300200050002004700020107300207B
:10371000307200201C7300201473002070B50C461A
:1037200082EA0305002103E0465C6E404654491CD2
:10373000A142F9DB055570BD3EB50F480F4B191D71
:1037400000221C6801940C6800940D4D019CAC4251
:1037500006D1009CA4F18855113D01D1012400E05F
:10376000002422463AB104680294029C44F4700496
:103770000294029C04603EBD88ED00E040EF00E052
:103780002100111010B5002807DA4A07140EF74A75
:1037900000F00F031B1FD45403E04A07130EF44A32
:1037A000135410BD1CB50446F2480078002879D1A6
:1037B000F148808C20F40050EF49888404234FF4B2
:1037C000107207210620FDF731FA0122D1030520EE
:1037D000FEF70EFD4FF400410520FEF71FFD00230C
:1037E0004FF450720B210220FDF720FA00224FF413
:1037F00000610120FEF7FCFC00234FF45072092108
:103800000220FDF713FA00224FF480610120FEF739
:10381000EFFC00234FF4107206210846FDF706FA6C
:10382000012220210020FEF7E3FC20210020FEF7EA
:10383000F5FCEA2C23D101208DF800000190CF493E
:103840000870002048700120C87000208870032094
:103850000871001F88606A460021C948FEF7A0FA77
:10386000C649C748FEF756FB0121C548FEF712FBC3
:103870000523102208210620FDF7D8F9BAE0042319
:103880004FF4107208210620FDF7D0F9012211042F
:103890000520FEF7ADFC4FF480310520FEF7BEFC9D
:1038A000A8E0FFE7EA2C53D101208DF80000019039
:1038B0000020B249087048700120C870002088704C
:1038C00003200871001F88606A460021AC48FEF79B
:1038D00067FAAA49AA48FEF71DFB0121A848FEF78E
:1038E000D9FA00234FF4507209210220FDF79EF906
:1038F00000224FF480610120FEF77AFC00234FF490
:1039000050720B210220FDF791F900224FF4006163
:103910000120FEF76DFC00234FF4107206210846CB
:10392000FDF784F9012220210020FEF761FC20210F
:103930000020FEF773FC0523102207210620FDF767
:1039400075F98D48808C40F400508B49888440E0A4
:103950008948808C20F400508749888404234FF4E0
:10396000107207210620FDF761F90122D10305201D
:10397000FEF73EFC4FF400410520FEF74FFC00230C
:103980004FF450720B210220FDF750F900224FF442
:1039900000610120FEF72CFC00234FF41072062179
:1039A0000846FDF743F9012220210020FEF720FC04
:1039B00020210020FEF732FC00234FF45072092131
:1039C0000220FDF733F900224FF480610120FEF759
:1039D0000FFC04234FF4107208210620FDF726F98E
:1039E000012211040520FEF703FC4FF4803105206D
:1039F000FEF714FC1CBD70B505469DB94FF0FF34B1
:103A00005C48007828B1224600215D48FEF718FB8B
:103A100004E0224601215A48FEF712FB5848FEF7FF
:103A20005CFA15E0680057490968B1FBF0F45148A9
:103A3000007828B1224600215148FEF701FB04E03E
:103A4000224601214E48FEF7FBFA4D48FEF745FAA3
:103A5000012070BD2DE9F0414FF0D8574A48007859
:103A600038B94A480078012803D100204849086045
:103A700009E045480078012805D14448007810B98C
:103A8000002043490860404800784049097888424E
:103A900065D13E480078002861D03E480088C8289B
:103AA0005DDA3E463A480088C0F30C0006EB80160B
:103AB00037480068401C364908600846006841F6EF
:103AC000FD71884202D900203149086034462078CF
:103AD00069280AD000202E4908602C490870084641
:103AE000007829490870BDE8F08100202A49087053
:103AF0002148808C40F080001F4988840846808CD3
:103B000020F040008884012024490870002524E02A
:103B1000102000FB05642078692804D000201B4990
:103B200008701B4908601448806918B92068000AA9
:103B3000114988611A491B4A128801EB02100822B8
:103B4000214603F088FCFFF77BFD28B91648008862
:103B500040F00100144908806D1C042DD8DB0B488F
:103B600000780949087000BFBDE7000018ED00E0CB
:103B700000E400E0EA000810402108109423081037
:103B800000300C40DC000810D30008101D010810A4
:103B90008C00081000730020F20008105401081077
:103BA000005000200873002032010810FD4A1268FE
:103BB000FD4B1B88B2EBD31F7ED0FB4A1288D2117B
:103BC000F84B1A60F94A92F8362012F0010F74D0BF
:103BD000F64A128ED24390B210F0100F0AD0F34A78
:103BE00092F8362012F0800F02D040F4805001E0AD
:103BF00040F4005010F0070F49D10022EC4B1A702E
:103C00000122EC4B1A700022EB4B1A80EB4B1A800E
:103C1000EB4B1A80EB4B1A80EB4B1A80EB4B1A8064
:103C2000EB4B1A70EB4B1A70EB4B1A70002120E033
:103C30000022EA4B43F821209FEDE90AE94A02EB12
:103C4000810282ED000A9FEDE60AE64A183202EB95
:103C5000810282ED000A0023E34A22F8113032F893
:103C60001130E24A22F811300023E14A42F82130B3
:103C7000491C0629DCDBCD4A928C22F08002CB4B1A
:103C80009A841A46928C42F040029A8402E0012201
:103C9000C74B1A700622D74B1A7010F4807F01D0E0
:103CA00000221A7010F4007F02D00122D14B1A704A
:103CB00010F4806F05D001E027E027E00222CD4B11
:103CC0001A7010F4006F02D00322CA4B1A7010F45D
:103CD000805F02D00422C74B1A7010F4005F02D03C
:103CE0000522C44B1A7010F0010F02D00122C24B02
:103CF0001A8010F0020F02D00A22BF4B1A8010F077
:103D0000040F06D06422BC4B1A8002E00022A84BAC
:103D10001A70704710B52DED0A8B9FEDB80BB0EE01
:103D2000408AF0EE608AB74800689F490988B0EB86
:103D3000E10F7DD09C480088C010B2490860B248AD
:103D40000078EA2845D0B1480088B149096888421E
:103D50003ED0AE480088B0F57A7F03DD4FF47A702C
:103D6000AA490880AA480068B0F57A7F03D94FF4C1
:103D70007A70A7490860A5480088A5490968884263
:103D800004D2A24800880A30A04908809F480088D1
:103D90009F490968884204D99C4800880A389B4991
:103DA00008809A4909889A4A1268881A01D40146FB
:103DB00000E041420A2903DA9548008893490880C7
:103DC0009248008803F0B6FC90480088774908853F
:103DD00063E09048006890490860904800789049F6
:103DE0000978884211D08F4800688B490968884259
:103DF0000BD08C480068142804D289480078874981
:103E0000087002E0002084490860844800788449F2
:103E10000978884241D18248007800B382480088FE
:103E200010F4005F0ED08148007830B1202100E00E
:103E300050E10020FEF7EEF92FE020210320FEF7ED
:103E4000E9F92AE07948007820B120210020FEF726
:103E5000E5F922E020210320FEF7E0F91DE0724899
:103E6000008810F4005F0CD07048007820B1202149
:103E70000020FEF7D3F910E020210320FEF7CEF951
:103E80000BE06A48007820B120210020FEF7C2F93B
:103E900003E020210320FEF7BDF9624800685E4977
:103EA000096888427DD06248006805F0A5FE41ECB3
:103EB000100BB0EE409AF0EE609A9FED5E0B53EC63
:103EC000102B51EC190B05F0A5FD41EC100BB0EED9
:103ED000408AF0EE608A9FED590B53EC102B51ECA9
:103EE000180B05F0E1FE05D29FED540BB0EE408AB1
:103EF000F0EE608A4848006805F07EFE41EC100B49
:103F0000B0EE409AF0EE609A4E4890ED000B53EC04
:103F1000102B51EC190B05F0DBFE0ED253EC182BD5
:103F2000484890ED000B51EC100B05F0CCFC41EC37
:103F3000100B444880ED000B0DE053EC182B41486A
:103F400090ED000B51EC100B05F05EFD41EC100BF9
:103F50003C4880ED000B53EC182B9FED3B0B51ECD4
:103F6000100B05F057FD41EC100BB0EE409AF0EE4F
:103F7000609A2948006805F03FFE41EC100BB0EE56
:103F800040CAF0EE60CA2F4890ED000B53EC102BA6
:103F900051EC1C0B05F03BFD41EC100BB0EE40BAB0
:103FA00056E089E0CC000810E0000810402108101D
:103FB00093000810F500081000730020087300201B
:103FC0000C73002010730020187300201C73002055
:103FD000410108104201081043010810182308107D
:103FE00000000000102108100C2308107C2308108A
:103FF0000022081092000810900008100000000035
:104000000000F03FB4000810FC00081096000810F3
:104010003801081000010810C80008100501081038
:1040200004010810B800081004710020EA0008100C
:10403000F8000810FCA9F1D24D62603F9A99999955
:104040009999B93FC000081000000000000000402E
:10405000F0EE60BA06F086FEB0EE40AAF0EE60AA7E
:1040600053EC192B51EC1A0B05F01EFE0DD2FA4839
:104070000068FA490860F848006805F0BDFD41ECA9
:10408000100BF74880ED000B08E0F54890ED000BB1
:1040900051EC100B05F0DCFDF0490860EF480068BA
:1040A000F0490968884207D0EC480068FFF7A3FC94
:1040B000EA480068EB490860E8480068E94909688F
:1040C000884207D0E5480068FFF795FCE3480068A0
:1040D000E4490860BDEC0A8B10BD10B5E2480078D9
:1040E00040B1E24890F8360040F00200DF4981F824
:1040F000360008E0DD4890F8360020F00200DB4989
:1041000081F8360010BDD948808C20F00800D749CE
:10411000888400241DE0D4480078C8B1D34850F802
:1041200024004142D24850F824003230814209DC58
:10413000CE4850F824004142CE4850F8240032388E
:10414000814205DAC948808C40F00800C74988845C
:10415000641C062CDFDBC548808C10F0080F6ED085
:104160000020C549087000210846FDF73CFC0021ED
:10417000C248FDF78FFE0020C1494860C148C860B1
:104180000846FDF7E9FA0020BF490880BF490880CA
:10419000BF490880BF490880BF490880BF490880DF
:1041A000BF490870BF490870BF490870AF48808C8C
:1041B00020F08000AD4988840846808C40F04000A3
:1041C00088840846808C20F01000888400241CE03D
:1041D0001FED7D0AB54800EB840080ED000A1FED5D
:1041E000800AB248183000EB840080ED000A0021FC
:1041F000AF4820F81410AF4820F81410AE4820F84B
:104200001410AE4840F82410641C062CE0DB9748DC
:10421000808C20F08000954988840846808C40F08E
:10422000400088840020A6490870904890F8360025
:1042300020F001008D4981F83600002426E047E097
:10424000A04850F8240000BB0021994820F8141021
:104250001FED9D0A954800EB840080ED000A1FEDDC
:10426000A00A9248183000EB840080ED000A01207B
:10427000A0408B4909788143894801700120A04002
:1042800089490978814388480170641C062CD7DB72
:104290008348007818B90020824908700DE0002496
:1042A00009E00021824820F8141030F814108148E9
:1042B00020F81410641C062CF3DB01210020FDF70C
:1042C00092FB01216D48FDF7E5FD01206A49087068
:1042D00000BF17E710B57C48806884B26348008C43
:1042E000A04206D17948008879490988B0EBE10FEE
:1042F0000BD005F072F95D49088673488068088420
:1043000073480088C0107149088010BD5748006884
:10431000704908625548406848625448806888621D
:104320005248C068C8625148006908634F484069F4
:1043300048634E4880698863AC200860704770B558
:1043400000256548008862490988C0EB5104002CAB
:1043500002DA4FF6FF700444B4F57A7F09DD5F4856
:10436000007830B900205E490860084600883F495F
:1043700088835A48007800283FD000215948FDF72B
:1043800089FD534800884008534908805648006812
:1043900060B355480068801C00EE100AB8EE400A71
:1043A000DFED520A80EE801ABCEEC10A10EE105A00
:1043B0004F480078401C4E49087000204D49088045
:1043C000464908704849086001204B490870284652
:1043D00004F0BEFE50B14248008824498883022080
:1043E00046490880002042490870002500203B49CA
:1043F000087001213B48FDF74DFD70BD10B54048E8
:10440000006833490988B0EBA11F24D030480088E8
:1044100080113B49086001213A48FEF790F80121DC
:104420003848FEF78CF8114948851E48007820B1BD
:104430001B48007881F8370003E000200B4981F821
:10444000370002212F48FEF77AF802212D48FEF7A7
:1044500076F80649888510BDC8000810B800081015
:10446000C0000810BC000810F70008104021081018
:10447000A8220810C022081055010810004008406A
:10448000B023081000800020007300200873002073
:104490000C73002010730020187300201C73002080
:1044A00041010810420108104301081010210810B2
:1044B0000C2308107C230810042108100022081087
:1044C000F20008101823081000610F40A80008101F
:1044D000E000081000100440D0000810140108107B
:1044E0007401081000400C40180108108096184B09
:1044F000D200081010010810530108101201081012
:10450000A400081000300E40FE480068A0BBFE4822
:104510000088FE490988B0EB510F12DAFA4800888A
:10452000FA490988C0EB510047F23151884223DD36
:10453000F64800884008F44908800120F1490860E5
:104540001AE0F2480088F0490988884214DAEE48F7
:1045500000884FF6FF71081AEC49098800EB5100FA
:1045600047F23151884207DDE84800884008E649B3
:1045700008800120E3490860704710B5E4480078DE
:1045800000287DD0E348008800287AD0E24880687F
:10459000E0490988491E01228A401040DF49B1F9EB
:1045A00000104840DB490988491E01228A40104218
:1045B00075D0DB480078401CD9490870084600785F
:1045C00003285EDD00210846FDF70DFA0021D548DD
:1045D000FDF760FC0120D44908600020D349486001
:1045E000D348C8600846FDF7B7F80020D1490870E5
:1045F000D1490880D1490880D1490880D149088033
:10460000D1490880D1490880D1490870D149087042
:10461000D1490870C2490870D048808C40F0100021
:10462000CE49888400241AE00020CD4941F82400B6
:104630009FEDCC0ACC4800EB840080ED000A9FED92
:10464000C90AC948183000EB840080ED000A002137
:10465000C64820F81410C64840F82410641C062CE4
:10466000E2DB0020B3490870AA490880AA488068A4
:104670000988491E01228A40104000B2A74902E081
:1046800011E022E00BE008800020A1490870012120
:10469000FDF7A9F90121A348FDF7FCFB15E0002077
:1046A0009F49087011E09C4880689A490988491E12
:1046B00001228A40104000B29849088000209549A4
:1046C00008809C4908709649087010BDA948006888
:1046D0000005000D29D19B48008800284DD196483F
:1046E0000088002849D1A448006888490988884280
:1046F00008D0A2480088401CA04908808348008850
:104700009D4908609D480088502836DD9348808C7C
:1047100020F08000914988840846808C40F0400059
:10472000888400209549088027E08648008820BBBF
:104730008148008808BB904800687449098888420D
:1047400008D08F480088401C8D4908806F48008839
:10475000894908608A480088B0F5967F0DDD7F485A
:10476000808C20F080007D4988840846808C40F051
:10477000400088840020824908807848808C10F0AE
:10478000800F22D17448007858B17448808C40F072
:104790008000724988840846808C20F0400088841C
:1047A00013E06848008880B96348008868B96848A1
:1047B000007850B96948808C20F08000674988846F
:1047C0000846808C40F040008884704710B5002473
:1047D0006C4800684D490988B0EB611F7ED04B489A
:1047E0000088401167490860624800680005000DB4
:1047F00004D05A48808C10F0400F70D0FFF76AFD4B
:1048000061480088502804DA5F480088401C5E49EF
:1048100008805D480088082806DD434800680128B4
:1048200002D1002040490860574800880A2802DC6D
:1048300056480078B8B143480088012803D0414861
:10484000008802280CD152480078401C504908705A
:10485000084600780A2806DD01240020087002E0DE
:1048600000204B49087037480088032803DB46487E
:104870000088052801DC002C30D03E480068000587
:10488000000D2BD100210120FDF7BDF8002825D116
:1048900000210846FDF7A7F8FEF702FF3D49086032
:1048A0000846006860B300203B49087000211D489D
:1048B000FDF7F0FA37480068C088384A02EB00116B
:1048C0000822374802F0C7FD32480068808817493F
:1048D0004860304800680068C86001E07FE070E030
:1048E0000846FCF739FF01210020FDF77CF8012183
:1048F0000C48FDF7CFFA012027490870284851E0FD
:104900005BE0000020710020E6000810E0000810C5
:10491000F2000810EE00081000610F40F0000810CF
:10492000950008100040084050730020B023081084
:1049300000800020940008100073002008730020FD
:104940000C73002010730020187300201C730020CB
:1049500041010810420108104301081040210810CD
:104960001823081000000000102108100C23081064
:10497000002208100C210040AC000810AA0008100A
:10498000B00008109C000810A00008109300081048
:10499000A200081060010810550108100050002006
:1049A000A0230810FE490860022002F0B7FC002096
:1049B000FC490880FC49086011E00020F8490860C3
:1049C0000DE0FA48007828B1F6480088401CF54907
:1049D000088004E00020F3490880F549087010BD04
:1049E00000B597B09FEDF30B8DED120B1FED230A71
:1049F0008DED110A00201090FFF768FEFFF7E6FE2C
:104A0000FFF764FEED48808C10F0800F01F0B58553
:104A1000EB48007888B30020159028E0E948159904
:104A200050F82120E84840F82120E6491839159827
:104A300051F82010E44A183A42F82010E24815993B
:104A400050F8210000EE100AB8EEC00ADF48D0EDA1
:104A5000000A20EE200AD0ED000A20EE200ADC48F1
:104A600000EB810080ED000A1598401C1590159808
:104A70000628D3DB0020D7490870D14800780028E9
:104A800078D0CF48007810F0C00F08D0CB4890F80D
:104A9000360010F0010F02D03F20C94908700020F5
:104AA0001590B0E20121159801FA00F0C449097887
:104AB00008427DD0BD48007800287AD0C6491598B4
:104AC00051F820001090C549159801EB800090ED39
:104AD000000ABDEEC00A10EE100A109940180DD160
:104AE00010980F9000EBD0704110BB4A159852F807
:104AF00020000144159842F8201011E0B64915989D
:104B000051F82010B54A02EB800090ED000ABDEE8E
:104B1000C00A10EE100A0144AF4A159842F820105E
:104B2000AD49159851F82020A7481830159940F83C
:104B30002120AA49159801EB800090ED000AB5EEFE
:104B4000C00AF1EE10FA16DD159801EB8000D0EDE9
:104B5000000A159801EB800090ED000ABDEEC00A36
:104B6000B8EEC00A30EEC00A159801EB800080ED67
:104B7000000A3CE04EE29949159851F820000B904C
:104B800005F07FF841EC100B8DED0C0B9DED0C0B3F
:104B900006F0E8F88DED0E0B9DED0E0B51EC100BB1
:104BA00005F037F800EE100AB8EEC00A8B4901E0B4
:104BB0001CE20CE0159801EB8000D0ED000A30EE0D
:104BC000200A159801EB800080ED000A0FE07D4877
:104BD0001830159950F821207B48183040F82120D2
:104BE000159950F821107C4A159842F82010764902
:104BF0001839159851F8200000EE100AB8EEC00AD6
:104C00007248D0ED000A20EE200A71491839159833
:104C100001EB800080ED000A159801EB800090ED1B
:104C2000000AB5EEC00AF1EE10FA06D1B7EE000A9E
:104C3000159801EB800080ED000A5C480078E8B32D
:104C40006749159851F8200000EB40006549098834
:104C50004843079004F0BFFF41EC100B8DED080BAB
:104C60009FED610B53EC102B9DED080B51EC100BDD
:104C700004F042FF41EC100B8DED0A0B9FED5C0B35
:104C800053EC102B9DED0A0B51EC100B04F01BFEA6
:104C900041EC100B8DED0E0B4F49159851F820008B
:104CA000099004F098FF41EC100B8DED0A0B9DED7F
:104CB0000A0B06F057F88DED0C0B00E02DE09DED92
:104CC0000E0B53EC102B9DED0C0B51EC100B04F064
:104CD000EBFF22D84348008864281EDA3C49183983
:104CE000159801EB800090ED000AF0EE000A20EE2E
:104CF000200AF0EE080A80EE201A159801EB8000D9
:104D000080ED001A3248159900EB810090ED000A01
:104D10002F4800EB810080ED000A2B4918391598C7
:104D200051F8200000EE100AB8EEC00A274890EDB6
:104D3000001AC0EE010A2448159950F8210000EE2F
:104D4000100AB8EEC00A80EE801A21491839159869
:104D500001EB800090ED000A21EE000ABDEEC00AD2
:104D600010EE100A244A159942F8210017480068ED
:104D700004F087FF41EC100B8DED0A0B1449183934
:104D8000159851F82000059004F07BFF41EC100BC2
:104D90008DED060B9FED190B53EC102B32E000004C
:104DA0005C010810A0000810507300209300081048
:104DB000A2000810000000000000000040210810C0
:104DC000F4000810E821081030220810D80008105C
:104DD00060230810F500081018230810302308106D
:104DE00078220810900008100000000000005940D0
:104DF000000000000000F03F90220810B81E85EB74
:104E000051B8BE3F9DED060B51EC100B04F002FEB5
:104E100041EC100B8DED080B9DED0A0B53EC102BA4
:104E20009DED080B51EC100B04F066FE41EC100BED
:104E30008DED0C0B9DED0C0B05F094FF8DED0E0B25
:104E40009DED0E0B51EC100B04F0E3FEFE4A15999C
:104E500042F82100FD49159801EB800090ED000A11
:104E600020EE000AFA48159900EB8100D0ED000A07
:104E7000B0EE001A60EE810A80EE201ABDEEC10A83
:104E800010EE100AF34A42F82100F349159851F840
:104E900020000B9004F09FFE41EC100B8DED0E0BEB
:104EA000EC49159851F82000079004F094FE41EC6D
:104EB000100B8DED0A0BE948159950F8210005906B
:104EC00004F089FE41EC100B8DED060B9DED060BF9
:104ED00005F048FF8DED080B9DED0A0B53EC102BF0
:104EE0009DED080B51EC100B04F0EDFC41EC100BA8
:104EF0008DED0C0B9DED0E0B53EC102B9DED0C0B63
:104F000051EC100B04F0D0FE72D2D148159950F834
:104F10002100079004F0B5FE41EC100B8DED0A0B5B
:104F2000CC49159851F82000039004F054FE41EC50
:104F3000100B8DED060BC948159950F82100019012
:104F400004F049FE41EC100B8DED020B9DED020BC0
:104F500005F008FF8DED040B9DED060B53EC102BB7
:104F60009DED040B51EC100B04F0ADFC41EC100B6B
:104F70008DED080B9DED0A0B53EC102B9DED080BEE
:104F800051EC100B04F046FD41EC100B8DED0C0BB9
:104F90009DED0C0B05F0E4FF8DED0E0B9DED0E0B62
:104FA00051EC100B04F0A8FEA94A183A159942F8E2
:104FB00021001146159801EB800090ED000AF0EEFB
:104FC000000AB4EEE00AF1EE10FA06D2B0EE000AE2
:104FD000159801EB800080ED000A0121159801FA77
:104FE00000F09F49097808439D49087008E0FFE7F1
:104FF0000121159881409A480078884398490870A3
:105000001598401C159015980628FFF64BAD00200A
:10501000944908709448007820B14FF41670934971
:10502000086002E064209149086090480068904957
:105030000968B0FBF1F08F490988884241F29D82EE
:10504000002015908CE30121159801FA00F08A499F
:10505000097808427DD00121159801FA00F08749AE
:1050600009780843854908708549159851F820004A
:1050700000286FDA7549159801EB800090ED000A61
:1050800073491839159801EB8000D0ED000ABFEE86
:10509000001A60EE810AB4EEE00AF1EE10FA6FDD5C
:1050A0006A49159801EB800090ED000A684815994F
:1050B00000EB8100D0ED000A30EE600A63491598DC
:1050C00001EB800080ED000A159801EB800090ED67
:1050D000000A5F491839159801EB8000D0ED000AED
:1050E000BFEE001A60EE810AB4EEE00AF1EE10FAAB
:1050F00047D2159801EB800090ED000AFFEE000A00
:1051000020EE200A5149159801EB800080ED000A3D
:10511000159801EB800090ED000A01F11800159937
:1051200000EB8100D0ED000A30EE200A8DED0B0A75
:105130000B9804F0A6FD41EC100B8DED0C0B12A8A2
:105140009DED0C0B05F0A4FE8DED0E0B9DED0E0BF1
:1051500001E002E3B2E051EC100B04F0CDFD3B495D
:105160001831159A41F822009DED120B51EC100BED
:1051700004F04FFD02B24348159920F811209CE13C
:1051800035E03249159801EB800090ED000A01F1FD
:105190001800159900EB8100D0ED000A30EE200ACE
:1051A0008DED0B0A0B9804F06CFD41EC100B8DEDAE
:1051B0000C0B12A89DED0C0B05F06AFE8DED0E0B8D
:1051C0009DED0E0B51EC100B04F096FD1F491831AC
:1051D000159A41F822009DED120B51EC100B04F0D2
:1051E00018FD02B22748159920F8112065E11849E9
:1051F0001839159801EB800090ED000AFFEE000AC7
:1052000020EE200A1149159801EB800080ED000A7C
:10521000159801EB800090ED000A01F11800159936
:1052200000EB8100D0ED000A30EE200A8DED0B0A74
:105230000B9804F026FD41EC100B8DED0C0B12A821
:105240009DED0C0B20E00000D82208101021081062
:1052500060230810F022081090220810482208103D
:10526000F6000810F40008109300081098000810C9
:105270003073002000730020430108104101081022
:10528000182308100C23081005F002FE8DED0E0BFC
:105290009DED0E0B51EC100B04F02EFDFC49159A00
:1052A00041F822009DED120B51EC100B04F0B1FC03
:1052B00002B2F848159920F81120FEE0F649159839
:1052C00051F82000002877DDF1491839159801EBD5
:1052D000800090ED000AF149159801EB8000D0EDB7
:1052E000000AB4EEE00AF1EE10FA7DD2E84918396E
:1052F000159801EB800090ED000AE84818301599E8
:1053000000EB8100D0ED000A30EE200AE0491839A8
:10531000159801EB800080ED000A159801EB8000E4
:1053200090ED000ADD49159801EB8000D0ED000AF0
:10533000B4EEE00AF1EE10FA3FDD159801EB8000C3
:1053400090ED000AD2491839159801EB800080EDE4
:10535000000A159801EB800090ED000ACC481599E1
:1053600000EB8100D0ED000A30EE200A8DED0B0A33
:105370000B9804F086FC41EC100B8DED0C0B12A881
:105380009DED0C0B05F084FD8DED0E0B9DED0E0BD0
:1053900051EC100B04F0B0FCBD49159A41F8220005
:1053A0009DED120B51EC100B04F033FC02B2B94826
:1053B000159920F8112080E076E0B5491839159844
:1053C00001EB800090ED000AB148159900EB8100D7
:1053D000D0ED000A30EE200A8DED0B0A0B9804F098
:1053E00050FC41EC100B00E01EE08DED0C0B12A800
:1053F0009DED0C0B05F04CFD8DED0E0B9DED0E0B98
:1054000051EC100B04F078FCA149159A41F82200E8
:105410009DED120B51EC100B04F0FBFB02B29D480A
:10542000159920F8112048E09C49159801EB80005F
:1054300090ED000A96491839159801EB800080ED2F
:10544000000A159801EB800090ED000A904815992C
:1054500000EB8100D0ED000A30EE200A8DED0B0A42
:105460000B9804F00EFC41EC100B8DED0C0B12A808
:105470009DED0C0B05F00CFD8DED0E0B9DED0E0B57
:1054800051EC100B04F038FC8149159A41F82200C8
:105490009DED120B51EC100B04F0BBFB02B27D48EA
:1054A000159920F8112008E00121159881407C48C9
:1054B000007888437A490870FEE3784818301599D7
:1054C00000EB810090ED000ABDEEC00A10EE100A5C
:1054D000801C744908606F48159930F91120724892
:1054E00030F91100101A0F9001D40F9801E00F98B5
:1054F00040426C490968884215DD6B48159930F8BF
:105500001120644820F811206748159930F91100DE
:1055100000EE100AB8EEC00A5D491839159801EB83
:10552000800080ED000A5B48159930F911000F905A
:10553000002801DB0F9801E00F984042099004F029
:105540004AFB41EC100B8DED0C0B5349159851F8AB
:105550002000079004F03FFB41EC100B8DED080B91
:105560009DED080B05F0FEFB8DED0A0B9DED0C0B80
:1055700053EC102B9DED0A0B51EC100B04F094FB37
:105580002CD24549159831F8200002B241481599AE
:1055900020F81120159930F9110000EE100AB8EE2C
:1055A000C00A3B491839159801EB800080ED000ACC
:1055B0000121159881403A4800788843384908709D
:1055C0003549159851F820203248159930F91100C5
:1055D000111A314A159842F820106DE72E49159896
:1055E00051F820202B48159930F91100111A2A4A38
:1055F000159842F820102D49159851F820000F9069
:1056000000EBD0704010099004F0E5FA41EC100B6B
:105610008DED0C0B2049159851F82000079004F0EF
:10562000DAFA41EC100B8DED080B9DED080B05F03F
:1056300099FB8DED0A0B9DED0C0B53EC102B9DEDA2
:105640000A0B51EC100B04F02FFB10D80121159818
:1056500001FA00F016490978084208D1012115988D
:1056600081400F48007888430D49087024E70121E4
:10567000159801FA00F00E49097808426DD00548E6
:10568000159930F911000E90002813DB0E9913E0E4
:10569000282108100C23081018230810482308108C
:1056A00043010810440108107C23081090220810C0
:1056B000F60008100E984142FE4A159802EB800051
:1056C00090ED000ABDEEC00A8DED0F0A0F9800287C
:1056D00001DB0F9801E00F98404281423DDBF64923
:1056E000159851F82000C1170E9000EB91708110B1
:1056F000F24A159852F820000F9000EBD07001EBA1
:105700006000099004F067FA41EC100B8DED0C0B72
:10571000EB49159851F82000079004F05CFA41EC31
:10572000100B8DED080B9DED080B05F01BFB8DEDAF
:105730000A0B9DED0C0B53EC102B9DED0A0B51EC5D
:10574000100B04F0B1FA08D8012115988140DD480A
:1057500000788843DB490870AEE61598401C159028
:1057600015980628FFF66FAC002014901490FDE306
:105770000121149801FA00F0D349097808427DD03C
:105780000121149801FA00F0CE490978084275D138
:10579000C949149851F820000F9000EBD0704010C8
:1057A000099004F018FA41EC100B8DED0C0BC44974
:1057B000149851F82000079004F00DFA41EC100BFA
:1057C0008DED080B9DED080B05F0CCFA8DED0A0B65
:1057D0009DED0C0B53EC102B9DED0A0B51EC100BB7
:1057E00004F076FA09D20121149801FA00F0B549C3
:1057F00009780843B34908705EE6B149149851F836
:1058000020000B9004F0E7F941EC100B8DED0C0B30
:105810009DED0C0B05F0A6FA8DED0E0B9FEDAB0B7D
:1058200053EC102B9DED0E0B51EC100B04F050FAC5
:105830007DD2A0481830149950F82100099004F046
:1058400020FA41EC100B8DED0C0BA248006804F01F
:1058500018FA41EC100B8DED020B9DED020B53EC91
:10586000102B9FED9D0B51EC100B04F045F941EC12
:10587000100B8DED060B9748006800E0FDE304F087
:1058800000FA41EC100B8DED020B9DED020B53EC79
:10589000102B9FED910B51EC100B04F02DF941EC06
:1058A000100B8DED040B9DED060B53EC102B9DEDB5
:1058B000040B51EC100B04F0ADF841EC100B8DED26
:1058C000080B9FED870B53EC102B9DED080B51EC53
:1058D000100B04F09FF841EC100B8DED0A0B9DEDC1
:1058E0000C0B53EC102B9DED0A0B51EC100B04F03C
:1058F00091F841EC100B8DED0E0B9DED0E0B51EC64
:10590000100B04F0F9F91190119804F0BAF941EC78
:10591000100B8DED0E0B6A49149851F82000099078
:1059200004F059F941EC100B8DED0A0B00E0FCE39B
:105930009DED0A0B05F016FA8DED0C0B9DED0E0B8F
:1059400053EC102B9DED0C0B51EC100B04F0C0F937
:105950007DD26048006804F094F941EC100B8DEDA5
:10596000060B9DED060B53EC102B9FED5B0B51ECE2
:10597000100B04F0C1F841EC100B8DED0A0B4D48F3
:105980001830149950F82100079004F07AF941EC8E
:10599000100B8DED080B9DED0A0B53EC102B9DEDBC
:1059A000080B51EC100B04F035F841EC100B8DEDA9
:1059B0000E0B4D49149851F82000099004F061F93C
:1059C00041EC100B8DED0A0B9DED0A0B05F0CAF9A9
:1059D0008DED0C0B9DED0E0B53EC102B9DED0C0B78
:1059E00051EC100B04F060F95AD24048149930F988
:1059F0001100002801DD012001E04FF0FF30099087
:105A000004F0E9F841EC100B8DED0C0B3148006807
:105A100004F037F941EC100B8DED040B9DED040BF8
:105A200053EC102B9FED2C0B51EC100B04F064F891
:105A300041EC100B8DED080B1E481830149950F8EE
:105A40002100059004F01DF941EC100B00E027E067
:105A50008DED060B9DED080B53EC102B9DED060B09
:105A600051EC100B03F0D6FF41EC100B8DED0A0B3F
:105A70009DED0C0B53EC102B9DED0A0B51EC100B14
:105A800003F0C8FF41EC100B8DED0E0B9DED0E0BDE
:105A900051EC100B04F030F9134A149942F821002C
:105AA0001149149801EB800090ED000AB5EEC00A90
:105AB0001EE000004823081090220810F022081071
:105AC00018230810430108104101081000000000CD
:105AD00000000000D80008109A9999999999B93F47
